2020-01-05 21:27:00.341_648 [9549-76c1c44f:6e7a619df5:83] [EU2] (INFO) Receiving : 8=FIX.4.4|9=263|35=D|34=83|49=EU2|50=WB|52=20200105-21:27:00.331|56=euw2|1=TRA|11=90092P|21=1|38=5|40=2|44=99.27|54=2|55=IR|59=0|60=20200105-21:27:00.328|100=XSFE|142=NL|200=202012|461=FXXXXX|1028=N|2667=1|20011=WB|20013=PU0162|10=229|
