8=FIX.4.4|9=146|35=A|34=1|49=MUREX_TI_TEST|52=20200324-16:44:25.107|56=360T_TI_TEST|95=15|96=m:1585068238067|98=0|108=60|141=Y|553=MUREX.Treasurer1|554=murextest|10=118|8=FIX.4.4|9=68|35=0|34=2|49=MUREX_TI_TEST|52=20200324-16:45:25.606|56=360T_TI_TEST|10=143|8=FIX.4.4|9=494|35=8|34=3|49=MUREX_TI_TEST|52=20200324-16:45:41.792|56=360T_TI_TEST|6=1.07791|14=0|15=EUR|17=39609648|31=1.07791|32=0|37=39609648|38=1000000|39=2|54=1|55=EUR/USD|60=20200324-16:45:40.962|64=20200326|150=F|151=0|194=1.07791|7071=FX-SPOT|453=2|448=MUREX.TEST|447=D|452=1|802=1|523=MUREX.Treasurer1|803=2|448=SEB.FRA.DEMO|447=D|452=35|802=1|523=SEBDEMO.AutoDealer|803=2|9516=4|9517=CITIBANK.DEMO|9518=1.07791|9517=SEB.FRA.DEMO|9518=1.07791|9517=RBS.LND.DEMO|9518=1.078|9517=BOAL.DEMO|9518=1.07826|10=058|8=FIX.4.4|9=432|35=8|34=4|49=MUREX_TI_TEST|52=20200324-16:46:00.998|56=360T_TI_TEST|6=1.07784|14=0|15=EUR|17=39609649|31=1.0955647|32=0|37=39609649|38=2000000|39=2|54=2|55=EUR/USD|60=20200324-16:46:01.335|64=20210927|150=F|151=0|194=1.07784|7071=FX-FWD|7653=101000028166056568|453=2|448=MUREX.TEST|447=D|452=1|802=1|523=MUREX.Treasurer1|803=2|448=RBS.LND.DEMO|447=D|452=35|802=1|523=RBSDEMO.AutoDealer|803=2|9516=1|9517=RBS.LND.DEMO|9518=1.0955647|10=245|