2018/02/23 19:14:25.174454 8=FIX.4.2|9=62|35=A|34=89|49=BON|52=20180223-19:14:25.171|56=KOD|98=0|108=30|10=250|
2018/02/23 19:14:25.179380 8=FIX.4.2|9=61|35=A|34=1|49=KOD|52=20180223-19:14:25.174|56=BON|98=0|108=30|10=188|
2018/02/23 19:14:25.188388 8=FIX.4.2|9=58|35=2|34=2|49=KOD|52=20180223-19:14:25.185|56=BON|7=1|16=0|10=024|
2018/02/23 19:14:25.192685 8=FIX.4.2|9=92|35=4|34=1|43=Y|49=BON|52=20180223-19:14:25.191|56=KOD|122=20180223-19:14:25.191|36=90|123=Y|10=217|
2018/02/23 19:14:55.193935 8=FIX.4.2|9=49|35=0|34=3|49=KOD|52=20180223-19:14:55.188|56=BON|10=162|
2018/02/23 19:14:55.198475 8=FIX.4.2|9=50|35=0|34=90|49=BON|52=20180223-19:14:55.195|56=KOD|10=206|
2018/02/23 19:15:25.199259 8=FIX.4.2|9=49|35=0|34=4|49=KOD|52=20180223-19:15:25.194|56=BON|10=158|
2018/02/23 19:15:25.203195 8=FIX.4.2|9=50|35=0|34=91|49=BON|52=20180223-19:15:25.198|56=KOD|10=208|
2018/02/23 19:15:55.204366 8=FIX.4.2|9=49|35=0|34=5|49=KOD|52=20180223-19:15:55.199|56=BON|10=167|
2018/02/23 19:15:55.207375 8=FIX.4.2|9=50|35=0|34=92|49=BON|52=20180223-19:15:55.203|56=KOD|10=199|
2018/02/23 19:16:24.428523 8=FIX.4.2|9=190|35=D|34=93|49=BON|50=BONT|52=20180223-19:16:24.424|56=KOD|1=BONACCOUNT|11=ORTT1_10_B1519413384418099000|21=1|38=10|40=2|44=99.0|54=1|55=DEMO|59=1|60=20180223-19:16:24.423|167=FUT|200=201804|10=220|
2018/02/23 19:16:24.559245 8=FIX.4.2|9=191|35=D|34=94|49=BON|50=BONT|52=20180223-19:16:24.522|56=KOD|1=BONACCOUNT|11=ORTT1_10_S1519413384522133000|21=1|38=10|40=2|44=101.0|54=2|55=DEMO|59=1|60=20180223-19:16:24.522|167=FUT|200=201804|10=000|
2018/02/23 19:16:24.601099 8=FIX.4.2|9=334|35=8|34=6|49=KOD|52=20180223-19:16:24.555|56=BON|57=BONT|1=BONACCOUNT|6=0.000|11=ORTT1_10_B1519413384418099000|14=0|17=FUT.DEMO.201804201802231_0|20=0|22=8|31=0.000|32=0|37=FUT.DEMO.201804201802231_0|38=10|39=0|40=2|41=ORTT1_10_B1519413384418099000|44=99.000|54=1|55=DEMO|59=1|60=20180223-19:16:24.495|150=0|151=10|167=FUT|200=201804|10=023|
2018/02/23 19:16:24.601129 8=FIX.4.2|9=335|35=8|34=7|49=KOD|52=20180223-19:16:24.598|56=BON|57=BONT|1=BONACCOUNT|6=0.000|11=ORTT1_10_S1519413384522133000|14=0|17=FUT.DEMO.201804201802231_1|20=0|22=8|31=0.000|32=0|37=FUT.DEMO.201804201802231_1|38=10|39=0|40=2|41=ORTT1_10_S1519413384522133000|44=101.000|54=2|55=DEMO|59=1|60=20180223-19:16:24.570|150=0|151=10|167=FUT|200=201804|10=065|
2018/02/23 19:16:24.627796 8=FIX.4.2|9=190|35=D|34=95|49=BON|50=BONT|52=20180223-19:16:24.624|56=KOD|1=BONACCOUNT|11=ORTT1_10_B1519413384623569000|21=1|38=10|40=2|44=99.0|54=1|55=DEMO|59=1|60=20180223-19:16:24.624|167=FUT|200=201804|10=227|
2018/02/23 19:16:24.670004 8=FIX.4.2|9=334|35=8|34=8|49=KOD|52=20180223-19:16:24.667|56=BON|57=BONT|1=BONACCOUNT|6=0.000|11=ORTT1_10_B1519413384623569000|14=0|17=FUT.DEMO.201804201802231_2|20=0|22=8|31=0.000|32=0|37=FUT.DEMO.201804201802231_2|38=10|39=0|40=2|41=ORTT1_10_B1519413384623569000|44=99.000|54=1|55=DEMO|59=1|60=20180223-19:16:24.638|150=0|151=10|167=FUT|200=201804|10=032|
2018/02/23 19:16:24.732394 8=FIX.4.2|9=191|35=D|34=96|49=BON|50=BONT|52=20180223-19:16:24.729|56=KOD|1=BONACCOUNT|11=ORTT1_10_S1519413384727472000|21=1|38=10|40=2|44=101.0|54=2|55=DEMO|59=1|60=20180223-19:16:24.729|167=FUT|200=201804|10=033|
2018/02/23 19:16:24.776069 8=FIX.4.2|9=335|35=8|34=9|49=KOD|52=20180223-19:16:24.773|56=BON|57=BONT|1=BONACCOUNT|6=0.000|11=ORTT1_10_S1519413384727472000|14=0|17=FUT.DEMO.201804201802231_3|20=0|22=8|31=0.000|32=0|37=FUT.DEMO.201804201802231_3|38=10|39=0|40=2|41=ORTT1_10_S1519413384727472000|44=101.000|54=2|55=DEMO|59=1|60=20180223-19:16:24.743|150=0|151=10|167=FUT|200=201804|10=094|
2018/02/23 19:16:24.836415 8=FIX.4.2|9=190|35=D|34=97|49=BON|50=BONT|52=20180223-19:16:24.833|56=KOD|1=BONACCOUNT|11=ORTT1_10_B1519413384832378000|21=1|38=10|40=2|44=99.0|54=1|55=DEMO|59=1|60=20180223-19:16:24.833|167=FUT|200=201804|10=233|
2018/02/23 19:16:24.880041 8=FIX.4.2|9=335|35=8|34=10|49=KOD|52=20180223-19:16:24.877|56=BON|57=BONT|1=BONACCOUNT|6=0.000|11=ORTT1_10_B1519413384832378000|14=0|17=FUT.DEMO.201804201802231_4|20=0|22=8|31=0.000|32=0|37=FUT.DEMO.201804201802231_4|38=10|39=0|40=2|41=ORTT1_10_B1519413384832378000|44=99.000|54=1|55=DEMO|59=1|60=20180223-19:16:24.847|150=0|151=10|167=FUT|200=201804|10=083|
2018/02/23 19:16:24.938594 8=FIX.4.2|9=191|35=D|34=98|49=BON|50=BONT|52=20180223-19:16:24.935|56=KOD|1=BONACCOUNT|11=ORTT1_10_S1519413384934576000|21=1|38=10|40=2|44=101.0|54=2|55=DEMO|59=1|60=20180223-19:16:24.935|167=FUT|200=201804|10=038|
2018/02/23 19:16:24.985215 8=FIX.4.2|9=336|35=8|34=11|49=KOD|52=20180223-19:16:24.980|56=BON|57=BONT|1=BONACCOUNT|6=0.000|11=ORTT1_10_S1519413384934576000|14=0|17=FUT.DEMO.201804201802231_5|20=0|22=8|31=0.000|32=0|37=FUT.DEMO.201804201802231_5|38=10|39=0|40=2|41=ORTT1_10_S1519413384934576000|44=101.000|54=2|55=DEMO|59=1|60=20180223-19:16:24.950|150=0|151=10|167=FUT|200=201804|10=150|
2018/02/23 19:16:25.043826 8=FIX.4.2|9=190|35=D|34=99|49=BON|50=BONT|52=20180223-19:16:25.040|56=KOD|1=BONACCOUNT|11=ORTT1_10_B1519413385039644000|21=1|38=10|40=2|44=99.0|54=1|55=DEMO|59=1|60=20180223-19:16:25.040|167=FUT|200=201804|10=213|
2018/02/23 19:16:25.088733 8=FIX.4.2|9=335|35=8|34=12|49=KOD|52=20180223-19:16:25.086|56=BON|57=BONT|1=BONACCOUNT|6=0.000|11=ORTT1_10_B1519413385039644000|14=0|17=FUT.DEMO.201804201802231_6|20=0|22=8|31=0.000|32=0|37=FUT.DEMO.201804201802231_6|38=10|39=0|40=2|41=ORTT1_10_B1519413385039644000|44=99.000|54=1|55=DEMO|59=1|60=20180223-19:16:25.057|150=0|151=10|167=FUT|200=201804|10=068|
2018/02/23 19:16:25.144614 8=FIX.4.2|9=192|35=D|34=100|49=BON|50=BONT|52=20180223-19:16:25.141|56=KOD|1=BONACCOUNT|11=ORTT1_10_S1519413385140555000|21=1|38=10|40=2|44=101.0|54=2|55=DEMO|59=1|60=20180223-19:16:25.141|167=FUT|200=201804|10=038|
2018/02/23 19:16:25.188567 8=FIX.4.2|9=336|35=8|34=13|49=KOD|52=20180223-19:16:25.185|56=BON|57=BONT|1=BONACCOUNT|6=0.000|11=ORTT1_10_S1519413385140555000|14=0|17=FUT.DEMO.201804201802231_7|20=0|22=8|31=0.000|32=0|37=FUT.DEMO.201804201802231_7|38=10|39=0|40=2|41=ORTT1_10_S1519413385140555000|44=101.000|54=2|55=DEMO|59=1|60=20180223-19:16:25.155|150=0|151=10|167=FUT|200=201804|10=126|
2018/02/23 19:16:25.246075 8=FIX.4.2|9=191|35=D|34=101|49=BON|50=BONT|52=20180223-19:16:25.242|56=KOD|1=BONACCOUNT|11=ORTT1_10_B1519413385241974000|21=1|38=10|40=2|44=99.0|54=1|55=DEMO|59=1|60=20180223-19:16:25.242|167=FUT|200=201804|10=255|
2018/02/23 19:16:25.288438 8=FIX.4.2|9=335|35=8|34=14|49=KOD|52=20180223-19:16:25.286|56=BON|57=BONT|1=BONACCOUNT|6=0.000|11=ORTT1_10_B1519413385241974000|14=0|17=FUT.DEMO.201804201802231_8|20=0|22=8|31=0.000|32=0|37=FUT.DEMO.201804201802231_8|38=10|39=0|40=2|41=ORTT1_10_B1519413385241974000|44=99.000|54=1|55=DEMO|59=1|60=20180223-19:16:25.257|150=0|151=10|167=FUT|200=201804|10=080|
2018/02/23 19:16:25.349836 8=FIX.4.2|9=192|35=D|34=102|49=BON|50=BONT|52=20180223-19:16:25.346|56=KOD|1=BONACCOUNT|11=ORTT1_10_S1519413385346400000|21=1|38=10|40=2|44=101.0|54=2|55=DEMO|59=1|60=20180223-19:16:25.346|167=FUT|200=201804|10=051|
2018/02/23 19:16:25.394801 8=FIX.4.2|9=336|35=8|34=15|49=KOD|52=20180223-19:16:25.392|56=BON|57=BONT|1=BONACCOUNT|6=0.000|11=ORTT1_10_S1519413385346400000|14=0|17=FUT.DEMO.201804201802231_9|20=0|22=8|31=0.000|32=0|37=FUT.DEMO.201804201802231_9|38=10|39=0|40=2|41=ORTT1_10_S1519413385346400000|44=101.000|54=2|55=DEMO|59=1|60=20180223-19:16:25.363|150=0|151=10|167=FUT|200=201804|10=127|
2018/02/23 19:16:25.453364 8=FIX.4.2|9=191|35=D|34=103|49=BON|50=BONT|52=20180223-19:16:25.450|56=KOD|1=BONACCOUNT|11=ORTT1_10_B1519413385449662000|21=1|38=10|40=2|44=99.0|54=1|55=DEMO|59=1|60=20180223-19:16:25.450|167=FUT|200=201804|10=007|
2018/02/23 19:16:25.496081 8=FIX.4.2|9=337|35=8|34=16|49=KOD|52=20180223-19:16:25.493|56=BON|57=BONT|1=BONACCOUNT|6=0.000|11=ORTT1_10_B1519413385449662000|14=0|17=FUT.DEMO.201804201802231_10|20=0|22=8|31=0.000|32=0|37=FUT.DEMO.201804201802231_10|38=10|39=0|40=2|41=ORTT1_10_B1519413385449662000|44=99.000|54=1|55=DEMO|59=1|60=20180223-19:16:25.464|150=0|151=10|167=FUT|200=201804|10=174|
2018/02/23 19:16:25.554399 8=FIX.4.2|9=192|35=D|34=104|49=BON|50=BONT|52=20180223-19:16:25.551|56=KOD|1=BONACCOUNT|11=ORTT1_10_S1519413385550370000|21=1|38=10|40=2|44=101.0|54=2|55=DEMO|59=1|60=20180223-19:16:25.551|167=FUT|200=201804|10=052|
2018/02/23 19:16:25.593990 8=FIX.4.2|9=338|35=8|34=17|49=KOD|52=20180223-19:16:25.591|56=BON|57=BONT|1=BONACCOUNT|6=0.000|11=ORTT1_10_S1519413385550370000|14=0|17=FUT.DEMO.201804201802231_11|20=0|22=8|31=0.000|32=0|37=FUT.DEMO.201804201802231_11|38=10|39=0|40=2|41=ORTT1_10_S1519413385550370000|44=101.000|54=2|55=DEMO|59=1|60=20180223-19:16:25.565|150=0|151=10|167=FUT|200=201804|10=224|
2018/02/23 19:16:25.660040 8=FIX.4.2|9=191|35=D|34=105|49=BON|50=BONT|52=20180223-19:16:25.656|56=KOD|1=BONACCOUNT|11=ORTT1_10_B1519413385655630000|21=1|38=10|40=2|44=99.0|54=1|55=DEMO|59=1|60=20180223-19:16:25.656|167=FUT|200=201804|10=019|
2018/02/23 19:16:25.702368 8=FIX.4.2|9=337|35=8|34=18|49=KOD|52=20180223-19:16:25.700|56=BON|57=BONT|1=BONACCOUNT|6=0.000|11=ORTT1_10_B1519413385655630000|14=0|17=FUT.DEMO.201804201802231_12|20=0|22=8|31=0.000|32=0|37=FUT.DEMO.201804201802231_12|38=10|39=0|40=2|41=ORTT1_10_B1519413385655630000|44=99.000|54=1|55=DEMO|59=1|60=20180223-19:16:25.671|150=0|151=10|167=FUT|200=201804|10=159|
2018/02/23 19:16:25.764236 8=FIX.4.2|9=192|35=D|34=106|49=BON|50=BONT|52=20180223-19:16:25.761|56=KOD|1=BONACCOUNT|11=ORTT1_10_S1519413385760333000|21=1|38=10|40=2|44=101.0|54=2|55=DEMO|59=1|60=20180223-19:16:25.760|167=FUT|200=201804|10=061|
2018/02/23 19:16:25.811932 8=FIX.4.2|9=338|35=8|34=19|49=KOD|52=20180223-19:16:25.809|56=BON|57=BONT|1=BONACCOUNT|6=0.000|11=ORTT1_10_S1519413385760333000|14=0|17=FUT.DEMO.201804201802231_13|20=0|22=8|31=0.000|32=0|37=FUT.DEMO.201804201802231_13|38=10|39=0|40=2|41=ORTT1_10_S1519413385760333000|44=101.000|54=2|55=DEMO|59=1|60=20180223-19:16:25.777|150=0|151=10|167=FUT|200=201804|10=241|
2018/02/23 19:16:25.869929 8=FIX.4.2|9=191|35=D|34=107|49=BON|50=BONT|52=20180223-19:16:25.866|56=KOD|1=BONACCOUNT|11=ORTT1_10_B1519413385865630000|21=1|38=10|40=2|44=99.0|54=1|55=DEMO|59=1|60=20180223-19:16:25.866|167=FUT|200=201804|10=030|
2018/02/23 19:16:25.916031 8=FIX.4.2|9=337|35=8|34=20|49=KOD|52=20180223-19:16:25.913|56=BON|57=BONT|1=BONACCOUNT|6=0.000|11=ORTT1_10_B1519413385865630000|14=0|17=FUT.DEMO.201804201802231_14|20=0|22=8|31=0.000|32=0|37=FUT.DEMO.201804201802231_14|38=10|39=0|40=2|41=ORTT1_10_B1519413385865630000|44=99.000|54=1|55=DEMO|59=1|60=20180223-19:16:25.881|150=0|151=10|167=FUT|200=201804|10=171|
2018/02/23 19:16:25.973220 8=FIX.4.2|9=192|35=D|34=108|49=BON|50=BONT|52=20180223-19:16:25.970|56=KOD|1=BONACCOUNT|11=ORTT1_10_S1519413385969298000|21=1|38=10|40=2|44=101.0|54=2|55=DEMO|59=1|60=20180223-19:16:25.969|167=FUT|200=201804|10=097|
2018/02/23 19:16:26.016365 8=FIX.4.2|9=338|35=8|34=21|49=KOD|52=20180223-19:16:26.014|56=BON|57=BONT|1=BONACCOUNT|6=0.000|11=ORTT1_10_S1519413385969298000|14=0|17=FUT.DEMO.201804201802231_15|20=0|22=8|31=0.000|32=0|37=FUT.DEMO.201804201802231_15|38=10|39=0|40=2|41=ORTT1_10_S1519413385969298000|44=101.000|54=2|55=DEMO|59=1|60=20180223-19:16:25.985|150=0|151=10|167=FUT|200=201804|10=014|
2018/02/23 19:16:26.077592 8=FIX.4.2|9=191|35=D|34=109|49=BON|50=BONT|52=20180223-19:16:26.074|56=KOD|1=BONACCOUNT|11=ORTT1_10_B1519413386073528000|21=1|38=10|40=2|44=99.0|54=1|55=DEMO|59=1|60=20180223-19:16:26.074|167=FUT|200=201804|10=014|
2018/02/23 19:16:26.121250 8=FIX.4.2|9=337|35=8|34=22|49=KOD|52=20180223-19:16:26.118|56=BON|57=BONT|1=BONACCOUNT|6=0.000|11=ORTT1_10_B1519413386073528000|14=0|17=FUT.DEMO.201804201802231_16|20=0|22=8|31=0.000|32=0|37=FUT.DEMO.201804201802231_16|38=10|39=0|40=2|41=ORTT1_10_B1519413386073528000|44=99.000|54=1|55=DEMO|59=1|60=20180223-19:16:26.088|150=0|151=10|167=FUT|200=201804|10=171|
2018/02/23 19:16:26.181378 8=FIX.4.2|9=192|35=D|34=110|49=BON|50=BONT|52=20180223-19:16:26.178|56=KOD|1=BONACCOUNT|11=ORTT1_10_S1519413386177086000|21=1|38=10|40=2|44=101.0|54=2|55=DEMO|59=1|60=20180223-19:16:26.178|167=FUT|200=201804|10=071|
2018/02/23 19:16:26.225584 8=FIX.4.2|9=338|35=8|34=23|49=KOD|52=20180223-19:16:26.223|56=BON|57=BONT|1=BONACCOUNT|6=0.000|11=ORTT1_10_S1519413386177086000|14=0|17=FUT.DEMO.201804201802231_17|20=0|22=8|31=0.000|32=0|37=FUT.DEMO.201804201802231_17|38=10|39=0|40=2|41=ORTT1_10_S1519413386177086000|44=101.000|54=2|55=DEMO|59=1|60=20180223-19:16:26.193|150=0|151=10|167=FUT|200=201804|10=244|
2018/02/23 19:16:26.284866 8=FIX.4.2|9=191|35=D|34=111|49=BON|50=BONT|52=20180223-19:16:26.281|56=KOD|1=BONACCOUNT|11=ORTT1_10_B1519413386280857000|21=1|38=10|40=2|44=99.0|54=1|55=DEMO|59=1|60=20180223-19:16:26.281|167=FUT|200=201804|10=012|
2018/02/23 19:16:26.329285 8=FIX.4.2|9=337|35=8|34=24|49=KOD|52=20180223-19:16:26.326|56=BON|57=BONT|1=BONACCOUNT|6=0.000|11=ORTT1_10_B1519413386280857000|14=0|17=FUT.DEMO.201804201802231_18|20=0|22=8|31=0.000|32=0|37=FUT.DEMO.201804201802231_18|38=10|39=0|40=2|41=ORTT1_10_B1519413386280857000|44=99.000|54=1|55=DEMO|59=1|60=20180223-19:16:26.296|150=0|151=10|167=FUT|200=201804|10=189|
2018/02/23 19:16:26.388003 8=FIX.4.2|9=192|35=D|34=112|49=BON|50=BONT|52=20180223-19:16:26.384|56=KOD|1=BONACCOUNT|11=ORTT1_10_S1519413386384022000|21=1|38=10|40=2|44=101.0|54=2|55=DEMO|59=1|60=20180223-19:16:26.384|167=FUT|200=201804|10=061|
2018/02/23 19:16:26.431497 8=FIX.4.2|9=338|35=8|34=25|49=KOD|52=20180223-19:16:26.429|56=BON|57=BONT|1=BONACCOUNT|6=0.000|11=ORTT1_10_S1519413386384022000|14=0|17=FUT.DEMO.201804201802231_19|20=0|22=8|31=0.000|32=0|37=FUT.DEMO.201804201802231_19|38=10|39=0|40=2|41=ORTT1_10_S1519413386384022000|44=101.000|54=2|55=DEMO|59=1|60=20180223-19:16:26.399|150=0|151=10|167=FUT|200=201804|10=246|
2018/02/23 19:16:26.492354 8=FIX.4.2|9=191|35=D|34=113|49=BON|50=BONT|52=20180223-19:16:26.489|56=KOD|1=BONACCOUNT|11=ORTT1_10_B1519413386488425000|21=1|38=10|40=2|44=99.0|54=1|55=DEMO|59=1|60=20180223-19:16:26.489|167=FUT|200=201804|10=035|
2018/02/23 19:16:26.534394 8=FIX.4.2|9=337|35=8|34=26|49=KOD|52=20180223-19:16:26.531|56=BON|57=BONT|1=BONACCOUNT|6=0.000|11=ORTT1_10_B1519413386488425000|14=0|17=FUT.DEMO.201804201802231_20|20=0|22=8|31=0.000|32=0|37=FUT.DEMO.201804201802231_20|38=10|39=0|40=2|41=ORTT1_10_B1519413386488425000|44=99.000|54=1|55=DEMO|59=1|60=20180223-19:16:26.504|150=0|151=10|167=FUT|200=201804|10=169|
2018/02/23 19:16:26.596848 8=FIX.4.2|9=192|35=D|34=114|49=BON|50=BONT|52=20180223-19:16:26.593|56=KOD|1=BONACCOUNT|11=ORTT1_10_S1519413386592713000|21=1|38=10|40=2|44=101.0|54=2|55=DEMO|59=1|60=20180223-19:16:26.593|167=FUT|200=201804|10=075|
2018/02/23 19:16:26.635818 8=FIX.4.2|9=338|35=8|34=27|49=KOD|52=20180223-19:16:26.633|56=BON|57=BONT|1=BONACCOUNT|6=0.000|11=ORTT1_10_S1519413386592713000|14=0|17=FUT.DEMO.201804201802231_21|20=0|22=8|31=0.000|32=0|37=FUT.DEMO.201804201802231_21|38=10|39=0|40=2|41=ORTT1_10_S1519413386592713000|44=101.000|54=2|55=DEMO|59=1|60=20180223-19:16:26.607|150=0|151=10|167=FUT|200=201804|10=239|
2018/02/23 19:16:26.701358 8=FIX.4.2|9=191|35=D|34=115|49=BON|50=BONT|52=20180223-19:16:26.698|56=KOD|1=BONACCOUNT|11=ORTT1_10_B1519413386697309000|21=1|38=10|40=2|44=99.0|54=1|55=DEMO|59=1|60=20180223-19:16:26.698|167=FUT|200=201804|10=044|
2018/02/23 19:16:26.744419 8=FIX.4.2|9=337|35=8|34=28|49=KOD|52=20180223-19:16:26.742|56=BON|57=BONT|1=BONACCOUNT|6=0.000|11=ORTT1_10_B1519413386697309000|14=0|17=FUT.DEMO.201804201802231_22|20=0|22=8|31=0.000|32=0|37=FUT.DEMO.201804201802231_22|38=10|39=0|40=2|41=ORTT1_10_B1519413386697309000|44=99.000|54=1|55=DEMO|59=1|60=20180223-19:16:26.712|150=0|151=10|167=FUT|200=201804|10=186|
2018/02/23 19:16:26.804557 8=FIX.4.2|9=192|35=D|34=116|49=BON|50=BONT|52=20180223-19:16:26.801|56=KOD|1=BONACCOUNT|11=ORTT1_10_S1519413386800667000|21=1|38=10|40=2|44=101.0|54=2|55=DEMO|59=1|60=20180223-19:16:26.801|167=FUT|200=201804|10=061|
2018/02/23 19:16:26.848334 8=FIX.4.2|9=338|35=8|34=29|49=KOD|52=20180223-19:16:26.845|56=BON|57=BONT|1=BONACCOUNT|6=0.000|11=ORTT1_10_S1519413386800667000|14=0|17=FUT.DEMO.201804201802231_23|20=0|22=8|31=0.000|32=0|37=FUT.DEMO.201804201802231_23|38=10|39=0|40=2|41=ORTT1_10_S1519413386800667000|44=101.000|54=2|55=DEMO|59=1|60=20180223-19:16:26.816|150=0|151=10|167=FUT|200=201804|10=252|
2018/02/23 19:16:26.906714 8=FIX.4.2|9=191|35=D|34=117|49=BON|50=BONT|52=20180223-19:16:26.902|56=KOD|1=BONACCOUNT|11=ORTT1_10_B1519413386901846000|21=1|38=10|40=2|44=99.0|54=1|55=DEMO|59=1|60=20180223-19:16:26.902|167=FUT|200=201804|10=016|
2018/02/23 19:16:26.949353 8=FIX.4.2|9=337|35=8|34=30|49=KOD|52=20180223-19:16:26.947|56=BON|57=BONT|1=BONACCOUNT|6=0.000|11=ORTT1_10_B1519413386901846000|14=0|17=FUT.DEMO.201804201802231_24|20=0|22=8|31=0.000|32=0|37=FUT.DEMO.201804201802231_24|38=10|39=0|40=2|41=ORTT1_10_B1519413386901846000|44=99.000|54=1|55=DEMO|59=1|60=20180223-19:16:26.917|150=0|151=10|167=FUT|200=201804|10=185|
2018/02/23 19:16:27.008474 8=FIX.4.2|9=192|35=D|34=118|49=BON|50=BONT|52=20180223-19:16:27.005|56=KOD|1=BONACCOUNT|11=ORTT1_10_S1519413387004764000|21=1|38=10|40=2|44=101.0|54=2|55=DEMO|59=1|60=20180223-19:16:27.005|167=FUT|200=201804|10=052|
2018/02/23 19:16:27.050807 8=FIX.4.2|9=338|35=8|34=31|49=KOD|52=20180223-19:16:27.048|56=BON|57=BONT|1=BONACCOUNT|6=0.000|11=ORTT1_10_S1519413387004764000|14=0|17=FUT.DEMO.201804201802231_25|20=0|22=8|31=0.000|32=0|37=FUT.DEMO.201804201802231_25|38=10|39=0|40=2|41=ORTT1_10_S1519413387004764000|44=101.000|54=2|55=DEMO|59=1|60=20180223-19:16:27.019|150=0|151=10|167=FUT|200=201804|10=231|
2018/02/23 19:16:27.111761 8=FIX.4.2|9=191|35=D|34=119|49=BON|50=BONT|52=20180223-19:16:27.108|56=KOD|1=BONACCOUNT|11=ORTT1_10_B1519413387107833000|21=1|38=10|40=2|44=99.0|54=1|55=DEMO|59=1|60=20180223-19:16:27.108|167=FUT|200=201804|10=011|
2018/02/23 19:16:27.154122 8=FIX.4.2|9=337|35=8|34=32|49=KOD|52=20180223-19:16:27.151|56=BON|57=BONT|1=BONACCOUNT|6=0.000|11=ORTT1_10_B1519413387107833000|14=0|17=FUT.DEMO.201804201802231_26|20=0|22=8|31=0.000|32=0|37=FUT.DEMO.201804201802231_26|38=10|39=0|40=2|41=ORTT1_10_B1519413387107833000|44=99.000|54=1|55=DEMO|59=1|60=20180223-19:16:27.123|150=0|151=10|167=FUT|200=201804|10=159|
2018/02/23 19:16:27.216680 8=FIX.4.2|9=192|35=D|34=120|49=BON|50=BONT|52=20180223-19:16:27.213|56=KOD|1=BONACCOUNT|11=ORTT1_10_S1519413387212730000|21=1|38=10|40=2|44=101.0|54=2|55=DEMO|59=1|60=20180223-19:16:27.213|167=FUT|200=201804|10=041|
2018/02/23 19:16:27.258828 8=FIX.4.2|9=338|35=8|34=33|49=KOD|52=20180223-19:16:27.256|56=BON|57=BONT|1=BONACCOUNT|6=0.000|11=ORTT1_10_S1519413387212730000|14=0|17=FUT.DEMO.201804201802231_27|20=0|22=8|31=0.000|32=0|37=FUT.DEMO.201804201802231_27|38=10|39=0|40=2|41=ORTT1_10_S1519413387212730000|44=101.000|54=2|55=DEMO|59=1|60=20180223-19:16:27.227|150=0|151=10|167=FUT|200=201804|10=227|
2018/02/23 19:16:27.320397 8=FIX.4.2|9=191|35=D|34=121|49=BON|50=BONT|52=20180223-19:16:27.315|56=KOD|1=BONACCOUNT|11=ORTT1_10_B1519413387315068000|21=1|38=10|40=2|44=99.0|54=1|55=DEMO|59=1|60=20180223-19:16:27.315|167=FUT|200=201804|10=005|
2018/02/23 19:16:27.359795 8=FIX.4.2|9=337|35=8|34=34|49=KOD|52=20180223-19:16:27.357|56=BON|57=BONT|1=BONACCOUNT|6=0.000|11=ORTT1_10_B1519413387315068000|14=0|17=FUT.DEMO.201804201802231_28|20=0|22=8|31=0.000|32=0|37=FUT.DEMO.201804201802231_28|38=10|39=0|40=2|41=ORTT1_10_B1519413387315068000|44=99.000|54=1|55=DEMO|59=1|60=20180223-19:16:27.331|150=0|151=10|167=FUT|200=201804|10=176|
2018/02/23 19:16:27.421883 8=FIX.4.2|9=192|35=D|34=122|49=BON|50=BONT|52=20180223-19:16:27.418|56=KOD|1=BONACCOUNT|11=ORTT1_10_S1519413387417658000|21=1|38=10|40=2|44=101.0|54=2|55=DEMO|59=1|60=20180223-19:16:27.418|167=FUT|200=201804|10=073|
2018/02/23 19:16:27.465607 8=FIX.4.2|9=338|35=8|34=35|49=KOD|52=20180223-19:16:27.463|56=BON|57=BONT|1=BONACCOUNT|6=0.000|11=ORTT1_10_S1519413387417658000|14=0|17=FUT.DEMO.201804201802231_29|20=0|22=8|31=0.000|32=0|37=FUT.DEMO.201804201802231_29|38=10|39=0|40=2|41=ORTT1_10_S1519413387417658000|44=101.000|54=2|55=DEMO|59=1|60=20180223-19:16:27.433|150=0|151=10|167=FUT|200=201804|10=008|
2018/02/23 19:16:27.524381 8=FIX.4.2|9=191|35=D|34=123|49=BON|50=BONT|52=20180223-19:16:27.521|56=KOD|1=BONACCOUNT|11=ORTT1_10_B1519413387520338000|21=1|38=10|40=2|44=99.0|54=1|55=DEMO|59=1|60=20180223-19:16:27.521|167=FUT|200=201804|10=003|
2018/02/23 19:16:27.567927 8=FIX.4.2|9=337|35=8|34=36|49=KOD|52=20180223-19:16:27.565|56=BON|57=BONT|1=BONACCOUNT|6=0.000|11=ORTT1_10_B1519413387520338000|14=0|17=FUT.DEMO.201804201802231_30|20=0|22=8|31=0.000|32=0|37=FUT.DEMO.201804201802231_30|38=10|39=0|40=2|41=ORTT1_10_B1519413387520338000|44=99.000|54=1|55=DEMO|59=1|60=20180223-19:16:27.535|150=0|151=10|167=FUT|200=201804|10=167|
2018/02/23 19:16:27.624561 8=FIX.4.2|9=192|35=D|34=124|49=BON|50=BONT|52=20180223-19:16:27.621|56=KOD|1=BONACCOUNT|11=ORTT1_10_S1519413387620866000|21=1|38=10|40=2|44=101.0|54=2|55=DEMO|59=1|60=20180223-19:16:27.621|167=FUT|200=201804|10=064|
2018/02/23 19:16:27.666197 8=FIX.4.2|9=338|35=8|34=37|49=KOD|52=20180223-19:16:27.663|56=BON|57=BONT|1=BONACCOUNT|6=0.000|11=ORTT1_10_S1519413387620866000|14=0|17=FUT.DEMO.201804201802231_31|20=0|22=8|31=0.000|32=0|37=FUT.DEMO.201804201802231_31|38=10|39=0|40=2|41=ORTT1_10_S1519413387620866000|44=101.000|54=2|55=DEMO|59=1|60=20180223-19:16:27.635|150=0|151=10|167=FUT|200=201804|10=252|
2018/02/23 19:16:27.729968 8=FIX.4.2|9=191|35=D|34=125|49=BON|50=BONT|52=20180223-19:16:27.726|56=KOD|1=BONACCOUNT|11=ORTT1_10_B1519413387725379000|21=1|38=10|40=2|44=99.0|54=1|55=DEMO|59=1|60=20180223-19:16:27.726|167=FUT|200=201804|10=031|
2018/02/23 19:16:27.772910 8=FIX.4.2|9=337|35=8|34=38|49=KOD|52=20180223-19:16:27.770|56=BON|57=BONT|1=BONACCOUNT|6=0.000|11=ORTT1_10_B1519413387725379000|14=0|17=FUT.DEMO.201804201802231_32|20=0|22=8|31=0.000|32=0|37=FUT.DEMO.201804201802231_32|38=10|39=0|40=2|41=ORTT1_10_B1519413387725379000|44=99.000|54=1|55=DEMO|59=1|60=20180223-19:16:27.741|150=0|151=10|167=FUT|200=201804|10=194|
2018/02/23 19:16:27.834462 8=FIX.4.2|9=192|35=D|34=126|49=BON|50=BONT|52=20180223-19:16:27.831|56=KOD|1=BONACCOUNT|11=ORTT1_10_S1519413387830288000|21=1|38=10|40=2|44=101.0|54=2|55=DEMO|59=1|60=20180223-19:16:27.831|167=FUT|200=201804|10=073|
2018/02/23 19:16:27.880408 8=FIX.4.2|9=338|35=8|34=39|49=KOD|52=20180223-19:16:27.878|56=BON|57=BONT|1=BONACCOUNT|6=0.000|11=ORTT1_10_S1519413387830288000|14=0|17=FUT.DEMO.201804201802231_33|20=0|22=8|31=0.000|32=0|37=FUT.DEMO.201804201802231_33|38=10|39=0|40=2|41=ORTT1_10_S1519413387830288000|44=101.000|54=2|55=DEMO|59=1|60=20180223-19:16:27.845|150=0|151=10|167=FUT|200=201804|10=015|
2018/02/23 19:16:27.937649 8=FIX.4.2|9=191|35=D|34=127|49=BON|50=BONT|52=20180223-19:16:27.934|56=KOD|1=BONACCOUNT|11=ORTT1_10_B1519413387932937000|21=1|38=10|40=2|44=99.0|54=1|55=DEMO|59=1|60=20180223-19:16:27.934|167=FUT|200=201804|10=035|
2018/02/23 19:16:27.977549 8=FIX.4.2|9=337|35=8|34=40|49=KOD|52=20180223-19:16:27.975|56=BON|57=BONT|1=BONACCOUNT|6=0.000|11=ORTT1_10_B1519413387932937000|14=0|17=FUT.DEMO.201804201802231_34|20=0|22=8|31=0.000|32=0|37=FUT.DEMO.201804201802231_34|38=10|39=0|40=2|41=ORTT1_10_B1519413387932937000|44=99.000|54=1|55=DEMO|59=1|60=20180223-19:16:27.949|150=0|151=10|167=FUT|200=201804|10=208|
2018/02/23 19:16:28.041365 8=FIX.4.2|9=192|35=D|34=128|49=BON|50=BONT|52=20180223-19:16:28.038|56=KOD|1=BONACCOUNT|11=ORTT1_10_S1519413388037340000|21=1|38=10|40=2|44=101.0|54=2|55=DEMO|59=1|60=20180223-19:16:28.037|167=FUT|200=201804|10=063|
2018/02/23 19:16:28.084462 8=FIX.4.2|9=338|35=8|34=41|49=KOD|52=20180223-19:16:28.082|56=BON|57=BONT|1=BONACCOUNT|6=0.000|11=ORTT1_10_S1519413388037340000|14=0|17=FUT.DEMO.201804201802231_35|20=0|22=8|31=0.000|32=0|37=FUT.DEMO.201804201802231_35|38=10|39=0|40=2|41=ORTT1_10_S1519413388037340000|44=101.000|54=2|55=DEMO|59=1|60=20180223-19:16:28.052|150=0|151=10|167=FUT|200=201804|10=225|
2018/02/23 19:16:28.146060 8=FIX.4.2|9=191|35=D|34=129|49=BON|50=BONT|52=20180223-19:16:28.142|56=KOD|1=BONACCOUNT|11=ORTT1_10_B1519413388142005000|21=1|38=10|40=2|44=99.0|54=1|55=DEMO|59=1|60=20180223-19:16:28.142|167=FUT|200=201804|10=001|
2018/02/23 19:16:28.191302 8=FIX.4.2|9=337|35=8|34=42|49=KOD|52=20180223-19:16:28.188|56=BON|57=BONT|1=BONACCOUNT|6=0.000|11=ORTT1_10_B1519413388142005000|14=0|17=FUT.DEMO.201804201802231_36|20=0|22=8|31=0.000|32=0|37=FUT.DEMO.201804201802231_36|38=10|39=0|40=2|41=ORTT1_10_B1519413388142005000|44=99.000|54=1|55=DEMO|59=1|60=20180223-19:16:28.158|150=0|151=10|167=FUT|200=201804|10=164|
2018/02/23 19:16:28.250328 8=FIX.4.2|9=192|35=D|34=130|49=BON|50=BONT|52=20180223-19:16:28.246|56=KOD|1=BONACCOUNT|11=ORTT1_10_S1519413388245528000|21=1|38=10|40=2|44=101.0|54=2|55=DEMO|59=1|60=20180223-19:16:28.246|167=FUT|200=201804|10=068|
2018/02/23 19:16:28.291100 8=FIX.4.2|9=338|35=8|34=43|49=KOD|52=20180223-19:16:28.288|56=BON|57=BONT|1=BONACCOUNT|6=0.000|11=ORTT1_10_S1519413388245528000|14=0|17=FUT.DEMO.201804201802231_37|20=0|22=8|31=0.000|32=0|37=FUT.DEMO.201804201802231_37|38=10|39=0|40=2|41=ORTT1_10_S1519413388245528000|44=101.000|54=2|55=DEMO|59=1|60=20180223-19:16:28.261|150=0|151=10|167=FUT|200=201804|10=003|
2018/02/23 19:16:28.355595 8=FIX.4.2|9=191|35=D|34=131|49=BON|50=BONT|52=20180223-19:16:28.352|56=KOD|1=BONACCOUNT|11=ORTT1_10_B1519413388351372000|21=1|38=10|40=2|44=99.0|54=1|55=DEMO|59=1|60=20180223-19:16:28.352|167=FUT|200=201804|10=009|
2018/02/23 19:16:28.395899 8=FIX.4.2|9=337|35=8|34=44|49=KOD|52=20180223-19:16:28.393|56=BON|57=BONT|1=BONACCOUNT|6=0.000|11=ORTT1_10_B1519413388351372000|14=0|17=FUT.DEMO.201804201802231_38|20=0|22=8|31=0.000|32=0|37=FUT.DEMO.201804201802231_38|38=10|39=0|40=2|41=ORTT1_10_B1519413388351372000|44=99.000|54=1|55=DEMO|59=1|60=20180223-19:16:28.366|150=0|151=10|167=FUT|200=201804|10=187|
2018/02/23 19:16:28.460356 8=FIX.4.2|9=192|35=D|34=132|49=BON|50=BONT|52=20180223-19:16:28.456|56=KOD|1=BONACCOUNT|11=ORTT1_10_S1519413388456257000|21=1|38=10|40=2|44=101.0|54=2|55=DEMO|59=1|60=20180223-19:16:28.456|167=FUT|200=201804|10=079|
2018/02/23 19:16:28.502514 8=FIX.4.2|9=338|35=8|34=45|49=KOD|52=20180223-19:16:28.499|56=BON|57=BONT|1=BONACCOUNT|6=0.000|11=ORTT1_10_S1519413388456257000|14=0|17=FUT.DEMO.201804201802231_39|20=0|22=8|31=0.000|32=0|37=FUT.DEMO.201804201802231_39|38=10|39=0|40=2|41=ORTT1_10_S1519413388456257000|44=101.000|54=2|55=DEMO|59=1|60=20180223-19:16:28.471|150=0|151=10|167=FUT|200=201804|10=022|
2018/02/23 19:16:28.565509 8=FIX.4.2|9=191|35=D|34=133|49=BON|50=BONT|52=20180223-19:16:28.561|56=KOD|1=BONACCOUNT|11=ORTT1_10_B1519413388561117000|21=1|38=10|40=2|44=99.0|54=1|55=DEMO|59=1|60=20180223-19:16:28.561|167=FUT|200=201804|10=015|
2018/02/23 19:16:28.606907 8=FIX.4.2|9=337|35=8|34=46|49=KOD|52=20180223-19:16:28.604|56=BON|57=BONT|1=BONACCOUNT|6=0.000|11=ORTT1_10_B1519413388561117000|14=0|17=FUT.DEMO.201804201802231_40|20=0|22=8|31=0.000|32=0|37=FUT.DEMO.201804201802231_40|38=10|39=0|40=2|41=ORTT1_10_B1519413388561117000|44=99.000|54=1|55=DEMO|59=1|60=20180223-19:16:28.576|150=0|151=10|167=FUT|200=201804|10=173|
2018/02/23 19:16:28.670583 8=FIX.4.2|9=192|35=D|34=134|49=BON|50=BONT|52=20180223-19:16:28.667|56=KOD|1=BONACCOUNT|11=ORTT1_10_S1519413388666395000|21=1|38=10|40=2|44=101.0|54=2|55=DEMO|59=1|60=20180223-19:16:28.667|167=FUT|200=201804|10=095|
2018/02/23 19:16:28.712122 8=FIX.4.2|9=338|35=8|34=47|49=KOD|52=20180223-19:16:28.709|56=BON|57=BONT|1=BONACCOUNT|6=0.000|11=ORTT1_10_S1519413388666395000|14=0|17=FUT.DEMO.201804201802231_41|20=0|22=8|31=0.000|32=0|37=FUT.DEMO.201804201802231_41|38=10|39=0|40=2|41=ORTT1_10_S1519413388666395000|44=101.000|54=2|55=DEMO|59=1|60=20180223-19:16:28.682|150=0|151=10|167=FUT|200=201804|10=020|
2018/02/23 19:16:28.774265 8=FIX.4.2|9=191|35=D|34=135|49=BON|50=BONT|52=20180223-19:16:28.771|56=KOD|1=BONACCOUNT|11=ORTT1_10_B1519413388770241000|21=1|38=10|40=2|44=99.0|54=1|55=DEMO|59=1|60=20180223-19:16:28.770|167=FUT|200=201804|10=022|
2018/02/23 19:16:28.817939 8=FIX.4.2|9=337|35=8|34=48|49=KOD|52=20180223-19:16:28.815|56=BON|57=BONT|1=BONACCOUNT|6=0.000|11=ORTT1_10_B1519413388770241000|14=0|17=FUT.DEMO.201804201802231_42|20=0|22=8|31=0.000|32=0|37=FUT.DEMO.201804201802231_42|38=10|39=0|40=2|41=ORTT1_10_B1519413388770241000|44=99.000|54=1|55=DEMO|59=1|60=20180223-19:16:28.785|150=0|151=10|167=FUT|200=201804|10=185|
2018/02/23 19:16:28.879085 8=FIX.4.2|9=192|35=D|34=136|49=BON|50=BONT|52=20180223-19:16:28.875|56=KOD|1=BONACCOUNT|11=ORTT1_10_S1519413388874770000|21=1|38=10|40=2|44=101.0|54=2|55=DEMO|59=1|60=20180223-19:16:28.875|167=FUT|200=201804|10=097|
2018/02/23 19:16:28.922846 8=FIX.4.2|9=338|35=8|34=49|49=KOD|52=20180223-19:16:28.920|56=BON|57=BONT|1=BONACCOUNT|6=0.000|11=ORTT1_10_S1519413388874770000|14=0|17=FUT.DEMO.201804201802231_43|20=0|22=8|31=0.000|32=0|37=FUT.DEMO.201804201802231_43|38=10|39=0|40=2|41=ORTT1_10_S1519413388874770000|44=101.000|54=2|55=DEMO|59=1|60=20180223-19:16:28.890|150=0|151=10|167=FUT|200=201804|10=018|
2018/02/23 19:16:28.981904 8=FIX.4.2|9=191|35=D|34=137|49=BON|50=BONT|52=20180223-19:16:28.978|56=KOD|1=BONACCOUNT|11=ORTT1_10_B1519413388977586000|21=1|38=10|40=2|44=99.0|54=1|55=DEMO|59=1|60=20180223-19:16:28.978|167=FUT|200=201804|10=064|
2018/02/23 19:16:29.026081 8=FIX.4.2|9=337|35=8|34=50|49=KOD|52=20180223-19:16:29.023|56=BON|57=BONT|1=BONACCOUNT|6=0.000|11=ORTT1_10_B1519413388977586000|14=0|17=FUT.DEMO.201804201802231_44|20=0|22=8|31=0.000|32=0|37=FUT.DEMO.201804201802231_44|38=10|39=0|40=2|41=ORTT1_10_B1519413388977586000|44=99.000|54=1|55=DEMO|59=1|60=20180223-19:16:28.993|150=0|151=10|167=FUT|200=201804|10=217|
2018/02/23 19:16:29.087347 8=FIX.4.2|9=192|35=D|34=138|49=BON|50=BONT|52=20180223-19:16:29.084|56=KOD|1=BONACCOUNT|11=ORTT1_10_S1519413389082420000|21=1|38=10|40=2|44=101.0|54=2|55=DEMO|59=1|60=20180223-19:16:29.083|167=FUT|200=201804|10=068|
2018/02/23 19:16:29.131125 8=FIX.4.2|9=338|35=8|34=51|49=KOD|52=20180223-19:16:29.128|56=BON|57=BONT|1=BONACCOUNT|6=0.000|11=ORTT1_10_S1519413389082420000|14=0|17=FUT.DEMO.201804201802231_45|20=0|22=8|31=0.000|32=0|37=FUT.DEMO.201804201802231_45|38=10|39=0|40=2|41=ORTT1_10_S1519413389082420000|44=101.000|54=2|55=DEMO|59=1|60=20180223-19:16:29.098|150=0|151=10|167=FUT|200=201804|10=241|
2018/02/23 19:16:29.190138 8=FIX.4.2|9=191|35=D|34=139|49=BON|50=BONT|52=20180223-19:16:29.186|56=KOD|1=BONACCOUNT|11=ORTT1_10_B1519413389186055000|21=1|38=10|40=2|44=99.0|54=1|55=DEMO|59=1|60=20180223-19:16:29.186|167=FUT|200=201804|10=034|
2018/02/23 19:16:29.235422 8=FIX.4.2|9=337|35=8|34=52|49=KOD|52=20180223-19:16:29.233|56=BON|57=BONT|1=BONACCOUNT|6=0.000|11=ORTT1_10_B1519413389186055000|14=0|17=FUT.DEMO.201804201802231_46|20=0|22=8|31=0.000|32=0|37=FUT.DEMO.201804201802231_46|38=10|39=0|40=2|41=ORTT1_10_B1519413389186055000|44=99.000|54=1|55=DEMO|59=1|60=20180223-19:16:29.201|150=0|151=10|167=FUT|200=201804|10=177|
2018/02/23 19:16:29.294550 8=FIX.4.2|9=192|35=D|34=140|49=BON|50=BONT|52=20180223-19:16:29.291|56=KOD|1=BONACCOUNT|11=ORTT1_10_S1519413389290565000|21=1|38=10|40=2|44=101.0|54=2|55=DEMO|59=1|60=20180223-19:16:29.291|167=FUT|200=201804|10=073|
2018/02/23 19:16:29.338157 8=FIX.4.2|9=338|35=8|34=53|49=KOD|52=20180223-19:16:29.335|56=BON|57=BONT|1=BONACCOUNT|6=0.000|11=ORTT1_10_S1519413389290565000|14=0|17=FUT.DEMO.201804201802231_47|20=0|22=8|31=0.000|32=0|37=FUT.DEMO.201804201802231_47|38=10|39=0|40=2|41=ORTT1_10_S1519413389290565000|44=101.000|54=2|55=DEMO|59=1|60=20180223-19:16:29.306|150=0|151=10|167=FUT|200=201804|10=005|
2018/02/23 19:16:29.397129 8=FIX.4.2|9=191|35=D|34=141|49=BON|50=BONT|52=20180223-19:16:29.394|56=KOD|1=BONACCOUNT|11=ORTT1_10_B1519413389393251000|21=1|38=10|40=2|44=99.0|54=1|55=DEMO|59=1|60=20180223-19:16:29.393|167=FUT|200=201804|10=026|
2018/02/23 19:16:29.438028 8=FIX.4.2|9=337|35=8|34=54|49=KOD|52=20180223-19:16:29.435|56=BON|57=BONT|1=BONACCOUNT|6=0.000|11=ORTT1_10_B1519413389393251000|14=0|17=FUT.DEMO.201804201802231_48|20=0|22=8|31=0.000|32=0|37=FUT.DEMO.201804201802231_48|38=10|39=0|40=2|41=ORTT1_10_B1519413389393251000|44=99.000|54=1|55=DEMO|59=1|60=20180223-19:16:29.407|150=0|151=10|167=FUT|200=201804|10=191|
2018/02/23 19:16:29.502060 8=FIX.4.2|9=192|35=D|34=142|49=BON|50=BONT|52=20180223-19:16:29.498|56=KOD|1=BONACCOUNT|11=ORTT1_10_S1519413389497652000|21=1|38=10|40=2|44=101.0|54=2|55=DEMO|59=1|60=20180223-19:16:29.498|167=FUT|200=201804|10=099|
2018/02/23 19:16:29.545001 8=FIX.4.2|9=338|35=8|34=55|49=KOD|52=20180223-19:16:29.542|56=BON|57=BONT|1=BONACCOUNT|6=0.000|11=ORTT1_10_S1519413389497652000|14=0|17=FUT.DEMO.201804201802231_49|20=0|22=8|31=0.000|32=0|37=FUT.DEMO.201804201802231_49|38=10|39=0|40=2|41=ORTT1_10_S1519413389497652000|44=101.000|54=2|55=DEMO|59=1|60=20180223-19:16:29.513|150=0|151=10|167=FUT|200=201804|10=023|
2018/02/23 19:16:29.605194 8=FIX.4.2|9=191|35=D|34=143|49=BON|50=BONT|52=20180223-19:16:29.601|56=KOD|1=BONACCOUNT|11=ORTT1_10_B1519413389601175000|21=1|38=10|40=2|44=99.0|54=1|55=DEMO|59=1|60=20180223-19:16:29.601|167=FUT|200=201804|10=008|
2018/02/23 19:16:29.648100 8=FIX.4.2|9=337|35=8|34=56|49=KOD|52=20180223-19:16:29.645|56=BON|57=BONT|1=BONACCOUNT|6=0.000|11=ORTT1_10_B1519413389601175000|14=0|17=FUT.DEMO.201804201802231_50|20=0|22=8|31=0.000|32=0|37=FUT.DEMO.201804201802231_50|38=10|39=0|40=2|41=ORTT1_10_B1519413389601175000|44=99.000|54=1|55=DEMO|59=1|60=20180223-19:16:29.616|150=0|151=10|167=FUT|200=201804|10=178|
2018/02/23 19:16:29.709966 8=FIX.4.2|9=192|35=D|34=144|49=BON|50=BONT|52=20180223-19:16:29.706|56=KOD|1=BONACCOUNT|11=ORTT1_10_S1519413389705685000|21=1|38=10|40=2|44=101.0|54=2|55=DEMO|59=1|60=20180223-19:16:29.706|167=FUT|200=201804|10=083|
2018/02/23 19:16:29.755117 8=FIX.4.2|9=338|35=8|34=57|49=KOD|52=20180223-19:16:29.752|56=BON|57=BONT|1=BONACCOUNT|6=0.000|11=ORTT1_10_S1519413389705685000|14=0|17=FUT.DEMO.201804201802231_51|20=0|22=8|31=0.000|32=0|37=FUT.DEMO.201804201802231_51|38=10|39=0|40=2|41=ORTT1_10_S1519413389705685000|44=101.000|54=2|55=DEMO|59=1|60=20180223-19:16:29.722|150=0|151=10|167=FUT|200=201804|10=012|
2018/02/23 19:16:29.814347 8=FIX.4.2|9=191|35=D|34=145|49=BON|50=BONT|52=20180223-19:16:29.810|56=KOD|1=BONACCOUNT|11=ORTT1_10_B1519413389810197000|21=1|38=10|40=2|44=99.0|54=1|55=DEMO|59=1|60=20180223-19:16:29.810|167=FUT|200=201804|10=020|
2018/02/23 19:16:29.857505 8=FIX.4.2|9=337|35=8|34=58|49=KOD|52=20180223-19:16:29.854|56=BON|57=BONT|1=BONACCOUNT|6=0.000|11=ORTT1_10_B1519413389810197000|14=0|17=FUT.DEMO.201804201802231_52|20=0|22=8|31=0.000|32=0|37=FUT.DEMO.201804201802231_52|38=10|39=0|40=2|41=ORTT1_10_B1519413389810197000|44=99.000|54=1|55=DEMO|59=1|60=20180223-19:16:29.825|150=0|151=10|167=FUT|200=201804|10=200|
2018/02/23 19:16:29.917560 8=FIX.4.2|9=192|35=D|34=146|49=BON|50=BONT|52=20180223-19:16:29.914|56=KOD|1=BONACCOUNT|11=ORTT1_10_S1519413389913254000|21=1|38=10|40=2|44=101.0|54=2|55=DEMO|59=1|60=20180223-19:16:29.913|167=FUT|200=201804|10=079|
2018/02/23 19:16:29.960460 8=FIX.4.2|9=338|35=8|34=59|49=KOD|52=20180223-19:16:29.958|56=BON|57=BONT|1=BONACCOUNT|6=0.000|11=ORTT1_10_S1519413389913254000|14=0|17=FUT.DEMO.201804201802231_53|20=0|22=8|31=0.000|32=0|37=FUT.DEMO.201804201802231_53|38=10|39=0|40=2|41=ORTT1_10_S1519413389913254000|44=101.000|54=2|55=DEMO|59=1|60=20180223-19:16:29.928|150=0|151=10|167=FUT|200=201804|10=020|
2018/02/23 19:16:30.022533 8=FIX.4.2|9=191|35=D|34=147|49=BON|50=BONT|52=20180223-19:16:30.019|56=KOD|1=BONACCOUNT|11=ORTT1_10_B1519413390018493000|21=1|38=10|40=2|44=99.0|54=1|55=DEMO|59=1|60=20180223-19:16:30.019|167=FUT|200=201804|10=255|
2018/02/23 19:16:30.063970 8=FIX.4.2|9=337|35=8|34=60|49=KOD|52=20180223-19:16:30.061|56=BON|57=BONT|1=BONACCOUNT|6=0.000|11=ORTT1_10_B1519413390018493000|14=0|17=FUT.DEMO.201804201802231_54|20=0|22=8|31=0.000|32=0|37=FUT.DEMO.201804201802231_54|38=10|39=0|40=2|41=ORTT1_10_B1519413390018493000|44=99.000|54=1|55=DEMO|59=1|60=20180223-19:16:30.033|150=0|151=10|167=FUT|200=201804|10=144|
2018/02/23 19:16:30.125832 8=FIX.4.2|9=192|35=D|34=148|49=BON|50=BONT|52=20180223-19:16:30.122|56=KOD|1=BONACCOUNT|11=ORTT1_10_S1519413390121750000|21=1|38=10|40=2|44=101.0|54=2|55=DEMO|59=1|60=20180223-19:16:30.122|167=FUT|200=201804|10=032|
2018/02/23 19:16:30.171028 8=FIX.4.2|9=338|35=8|34=61|49=KOD|52=20180223-19:16:30.168|56=BON|57=BONT|1=BONACCOUNT|6=0.000|11=ORTT1_10_S1519413390121750000|14=0|17=FUT.DEMO.201804201802231_55|20=0|22=8|31=0.000|32=0|37=FUT.DEMO.201804201802231_55|38=10|39=0|40=2|41=ORTT1_10_S1519413390121750000|44=101.000|54=2|55=DEMO|59=1|60=20180223-19:16:30.137|150=0|151=10|167=FUT|200=201804|10=210|
2018/02/23 19:16:30.230019 8=FIX.4.2|9=191|35=D|34=149|49=BON|50=BONT|52=20180223-19:16:30.226|56=KOD|1=BONACCOUNT|11=ORTT1_10_B1519413390225665000|21=1|38=10|40=2|44=99.0|54=1|55=DEMO|59=1|60=20180223-19:16:30.226|167=FUT|200=201804|10=002|
2018/02/23 19:16:30.275214 8=FIX.4.2|9=337|35=8|34=62|49=KOD|52=20180223-19:16:30.272|56=BON|57=BONT|1=BONACCOUNT|6=0.000|11=ORTT1_10_B1519413390225665000|14=0|17=FUT.DEMO.201804201802231_56|20=0|22=8|31=0.000|32=0|37=FUT.DEMO.201804201802231_56|38=10|39=0|40=2|41=ORTT1_10_B1519413390225665000|44=99.000|54=1|55=DEMO|59=1|60=20180223-19:16:30.241|150=0|151=10|167=FUT|200=201804|10=157|
2018/02/23 19:16:30.334752 8=FIX.4.2|9=192|35=D|34=150|49=BON|50=BONT|52=20180223-19:16:30.331|56=KOD|1=BONACCOUNT|11=ORTT1_10_S1519413390330331000|21=1|38=10|40=2|44=101.0|54=2|55=DEMO|59=1|60=20180223-19:16:30.331|167=FUT|200=201804|10=026|
2018/02/23 19:16:30.376498 8=FIX.4.2|9=338|35=8|34=63|49=KOD|52=20180223-19:16:30.374|56=BON|57=BONT|1=BONACCOUNT|6=0.000|11=ORTT1_10_S1519413390330331000|14=0|17=FUT.DEMO.201804201802231_57|20=0|22=8|31=0.000|32=0|37=FUT.DEMO.201804201802231_57|38=10|39=0|40=2|41=ORTT1_10_S1519413390330331000|44=101.000|54=2|55=DEMO|59=1|60=20180223-19:16:30.346|150=0|151=10|167=FUT|200=201804|10=211|
2018/02/23 19:16:30.437059 8=FIX.4.2|9=191|35=D|34=151|49=BON|50=BONT|52=20180223-19:16:30.433|56=KOD|1=BONACCOUNT|11=ORTT1_10_B1519413390433137000|21=1|38=10|40=2|44=99.0|54=1|55=DEMO|59=1|60=20180223-19:16:30.433|167=FUT|200=201804|10=246|
2018/02/23 19:16:30.477465 8=FIX.4.2|9=337|35=8|34=64|49=KOD|52=20180223-19:16:30.474|56=BON|57=BONT|1=BONACCOUNT|6=0.000|11=ORTT1_10_B1519413390433137000|14=0|17=FUT.DEMO.201804201802231_58|20=0|22=8|31=0.000|32=0|37=FUT.DEMO.201804201802231_58|38=10|39=0|40=2|41=ORTT1_10_B1519413390433137000|44=99.000|54=1|55=DEMO|59=1|60=20180223-19:16:30.448|150=0|151=10|167=FUT|200=201804|10=166|
2018/02/23 19:16:30.542716 8=FIX.4.2|9=192|35=D|34=152|49=BON|50=BONT|52=20180223-19:16:30.539|56=KOD|1=BONACCOUNT|11=ORTT1_10_S1519413390538536000|21=1|38=10|40=2|44=101.0|54=2|55=DEMO|59=1|60=20180223-19:16:30.539|167=FUT|200=201804|10=065|
2018/02/23 19:16:30.584376 8=FIX.4.2|9=338|35=8|34=65|49=KOD|52=20180223-19:16:30.582|56=BON|57=BONT|1=BONACCOUNT|6=0.000|11=ORTT1_10_S1519413390538536000|14=0|17=FUT.DEMO.201804201802231_59|20=0|22=8|31=0.000|32=0|37=FUT.DEMO.201804201802231_59|38=10|39=0|40=2|41=ORTT1_10_S1519413390538536000|44=101.000|54=2|55=DEMO|59=1|60=20180223-19:16:30.554|150=0|151=10|167=FUT|200=201804|10=253|
2018/02/23 19:16:30.666185 8=FIX.4.2|9=191|35=D|34=153|49=BON|50=BONT|52=20180223-19:16:30.645|56=KOD|1=BONACCOUNT|11=ORTT1_10_B1519413390643822000|21=1|38=10|40=2|44=99.0|54=1|55=DEMO|59=1|60=20180223-19:16:30.645|167=FUT|200=201804|10=006|
2018/02/23 19:16:30.712186 8=FIX.4.2|9=337|35=8|34=66|49=KOD|52=20180223-19:16:30.708|56=BON|57=BONT|1=BONACCOUNT|6=0.000|11=ORTT1_10_B1519413390643822000|14=0|17=FUT.DEMO.201804201802231_60|20=0|22=8|31=0.000|32=0|37=FUT.DEMO.201804201802231_60|38=10|39=0|40=2|41=ORTT1_10_B1519413390643822000|44=99.000|54=1|55=DEMO|59=1|60=20180223-19:16:30.677|150=0|151=10|167=FUT|200=201804|10=166|
2018/02/23 19:16:30.752174 8=FIX.4.2|9=192|35=D|34=154|49=BON|50=BONT|52=20180223-19:16:30.748|56=KOD|1=BONACCOUNT|11=ORTT1_10_S1519413390747669000|21=1|38=10|40=2|44=101.0|54=2|55=DEMO|59=1|60=20180223-19:16:30.748|167=FUT|200=201804|10=080|
2018/02/23 19:16:30.793608 8=FIX.4.2|9=338|35=8|34=67|49=KOD|52=20180223-19:16:30.791|56=BON|57=BONT|1=BONACCOUNT|6=0.000|11=ORTT1_10_S1519413390747669000|14=0|17=FUT.DEMO.201804201802231_61|20=0|22=8|31=0.000|32=0|37=FUT.DEMO.201804201802231_61|38=10|39=0|40=2|41=ORTT1_10_S1519413390747669000|44=101.000|54=2|55=DEMO|59=1|60=20180223-19:16:30.762|150=0|151=10|167=FUT|200=201804|10=006|
2018/02/23 19:16:30.855455 8=FIX.4.2|9=191|35=D|34=155|49=BON|50=BONT|52=20180223-19:16:30.852|56=KOD|1=BONACCOUNT|11=ORTT1_10_B1519413390851275000|21=1|38=10|40=2|44=99.0|54=1|55=DEMO|59=1|60=20180223-19:16:30.851|167=FUT|200=201804|10=010|
2018/02/23 19:16:30.897171 8=FIX.4.2|9=337|35=8|34=68|49=KOD|52=20180223-19:16:30.894|56=BON|57=BONT|1=BONACCOUNT|6=0.000|11=ORTT1_10_B1519413390851275000|14=0|17=FUT.DEMO.201804201802231_62|20=0|22=8|31=0.000|32=0|37=FUT.DEMO.201804201802231_62|38=10|39=0|40=2|41=ORTT1_10_B1519413390851275000|44=99.000|54=1|55=DEMO|59=1|60=20180223-19:16:30.866|150=0|151=10|167=FUT|200=201804|10=184|
2018/02/23 19:16:30.955687 8=FIX.4.2|9=192|35=D|34=156|49=BON|50=BONT|52=20180223-19:16:30.952|56=KOD|1=BONACCOUNT|11=ORTT1_10_S1519413390952005000|21=1|38=10|40=2|44=101.0|54=2|55=DEMO|59=1|60=20180223-19:16:30.952|167=FUT|200=201804|10=058|
2018/02/23 19:16:31.001205 8=FIX.4.2|9=338|35=8|34=69|49=KOD|52=20180223-19:16:30.998|56=BON|57=BONT|1=BONACCOUNT|6=0.000|11=ORTT1_10_S1519413390952005000|14=0|17=FUT.DEMO.201804201802231_63|20=0|22=8|31=0.000|32=0|37=FUT.DEMO.201804201802231_63|38=10|39=0|40=2|41=ORTT1_10_S1519413390952005000|44=101.000|54=2|55=DEMO|59=1|60=20180223-19:16:30.967|150=0|151=10|167=FUT|200=201804|10=248|
2018/02/23 19:16:31.055870 8=FIX.4.2|9=191|35=D|34=157|49=BON|50=BONT|52=20180223-19:16:31.052|56=KOD|1=BONACCOUNT|11=ORTT1_10_B1519413391052324000|21=1|38=10|40=2|44=99.0|54=1|55=DEMO|59=1|60=20180223-19:16:31.052|167=FUT|200=201804|10=244|
2018/02/23 19:16:31.099308 8=FIX.4.2|9=337|35=8|34=70|49=KOD|52=20180223-19:16:31.097|56=BON|57=BONT|1=BONACCOUNT|6=0.000|11=ORTT1_10_B1519413391052324000|14=0|17=FUT.DEMO.201804201802231_64|20=0|22=8|31=0.000|32=0|37=FUT.DEMO.201804201802231_64|38=10|39=0|40=2|41=ORTT1_10_B1519413391052324000|44=99.000|54=1|55=DEMO|59=1|60=20180223-19:16:31.067|150=0|151=10|167=FUT|200=201804|10=149|
2018/02/23 19:16:31.160790 8=FIX.4.2|9=192|35=D|34=158|49=BON|50=BONT|52=20180223-19:16:31.157|56=KOD|1=BONACCOUNT|11=ORTT1_10_S1519413391156371000|21=1|38=10|40=2|44=101.0|54=2|55=DEMO|59=1|60=20180223-19:16:31.157|167=FUT|200=201804|10=059|
2018/02/23 19:16:31.206072 8=FIX.4.2|9=338|35=8|34=71|49=KOD|52=20180223-19:16:31.203|56=BON|57=BONT|1=BONACCOUNT|6=0.000|11=ORTT1_10_S1519413391156371000|14=0|17=FUT.DEMO.201804201802231_65|20=0|22=8|31=0.000|32=0|37=FUT.DEMO.201804201802231_65|38=10|39=0|40=2|41=ORTT1_10_S1519413391156371000|44=101.000|54=2|55=DEMO|59=1|60=20180223-19:16:31.173|150=0|151=10|167=FUT|200=201804|10=221|
2018/02/23 19:16:31.264577 8=FIX.4.2|9=191|35=D|34=159|49=BON|50=BONT|52=20180223-19:16:31.261|56=KOD|1=BONACCOUNT|11=ORTT1_10_B1519413391260319000|21=1|38=10|40=2|44=99.0|54=1|55=DEMO|59=1|60=20180223-19:16:31.260|167=FUT|200=201804|10=254|
2018/02/23 19:16:31.310925 8=FIX.4.2|9=337|35=8|34=72|49=KOD|52=20180223-19:16:31.308|56=BON|57=BONT|1=BONACCOUNT|6=0.000|11=ORTT1_10_B1519413391260319000|14=0|17=FUT.DEMO.201804201802231_66|20=0|22=8|31=0.000|32=0|37=FUT.DEMO.201804201802231_66|38=10|39=0|40=2|41=ORTT1_10_B1519413391260319000|44=99.000|54=1|55=DEMO|59=1|60=20180223-19:16:31.277|150=0|151=10|167=FUT|200=201804|10=163|
2018/02/23 19:16:31.365703 8=FIX.4.2|9=192|35=D|34=160|49=BON|50=BONT|52=20180223-19:16:31.362|56=KOD|1=BONACCOUNT|11=ORTT1_10_S1519413391361635000|21=1|38=10|40=2|44=101.0|54=2|55=DEMO|59=1|60=20180223-19:16:31.362|167=FUT|200=201804|10=049|
2018/02/23 19:16:31.406998 8=FIX.4.2|9=338|35=8|34=73|49=KOD|52=20180223-19:16:31.404|56=BON|57=BONT|1=BONACCOUNT|6=0.000|11=ORTT1_10_S1519413391361635000|14=0|17=FUT.DEMO.201804201802231_67|20=0|22=8|31=0.000|32=0|37=FUT.DEMO.201804201802231_67|38=10|39=0|40=2|41=ORTT1_10_S1519413391361635000|44=101.000|54=2|55=DEMO|59=1|60=20180223-19:16:31.376|150=0|151=10|167=FUT|200=201804|10=237|
2018/02/23 19:16:31.470314 8=FIX.4.2|9=191|35=D|34=161|49=BON|50=BONT|52=20180223-19:16:31.467|56=KOD|1=BONACCOUNT|11=ORTT1_10_B1519413391466231000|21=1|38=10|40=2|44=99.0|54=1|55=DEMO|59=1|60=20180223-19:16:31.466|167=FUT|200=201804|10=008|
2018/02/23 19:16:31.513229 8=FIX.4.2|9=337|35=8|34=74|49=KOD|52=20180223-19:16:31.510|56=BON|57=BONT|1=BONACCOUNT|6=0.000|11=ORTT1_10_B1519413391466231000|14=0|17=FUT.DEMO.201804201802231_68|20=0|22=8|31=0.000|32=0|37=FUT.DEMO.201804201802231_68|38=10|39=0|40=2|41=ORTT1_10_B1519413391466231000|44=99.000|54=1|55=DEMO|59=1|60=20180223-19:16:31.482|150=0|151=10|167=FUT|200=201804|10=164|
2018/02/23 19:16:31.574595 8=FIX.4.2|9=192|35=D|34=162|49=BON|50=BONT|52=20180223-19:16:31.571|56=KOD|1=BONACCOUNT|11=ORTT1_10_S1519413391570590000|21=1|38=10|40=2|44=101.0|54=2|55=DEMO|59=1|60=20180223-19:16:31.571|167=FUT|200=201804|10=057|
2018/02/23 19:16:31.617460 8=FIX.4.2|9=338|35=8|34=75|49=KOD|52=20180223-19:16:31.615|56=BON|57=BONT|1=BONACCOUNT|6=0.000|11=ORTT1_10_S1519413391570590000|14=0|17=FUT.DEMO.201804201802231_69|20=0|22=8|31=0.000|32=0|37=FUT.DEMO.201804201802231_69|38=10|39=0|40=2|41=ORTT1_10_S1519413391570590000|44=101.000|54=2|55=DEMO|59=1|60=20180223-19:16:31.585|150=0|151=10|167=FUT|200=201804|10=253|
2018/02/23 19:16:31.680021 8=FIX.4.2|9=191|35=D|34=163|49=BON|50=BONT|52=20180223-19:16:31.676|56=KOD|1=BONACCOUNT|11=ORTT1_10_B1519413391675565000|21=1|38=10|40=2|44=99.0|54=1|55=DEMO|59=1|60=20180223-19:16:31.676|167=FUT|200=201804|10=027|
2018/02/23 19:16:31.724053 8=FIX.4.2|9=337|35=8|34=76|49=KOD|52=20180223-19:16:31.721|56=BON|57=BONT|1=BONACCOUNT|6=0.000|11=ORTT1_10_B1519413391675565000|14=0|17=FUT.DEMO.201804201802231_70|20=0|22=8|31=0.000|32=0|37=FUT.DEMO.201804201802231_70|38=10|39=0|40=2|41=ORTT1_10_B1519413391675565000|44=99.000|54=1|55=DEMO|59=1|60=20180223-19:16:31.691|150=0|151=10|167=FUT|200=201804|10=182|
2018/02/23 19:16:31.784301 8=FIX.4.2|9=192|35=D|34=164|49=BON|50=BONT|52=20180223-19:16:31.780|56=KOD|1=BONACCOUNT|11=ORTT1_10_S1519413391779885000|21=1|38=10|40=2|44=101.0|54=2|55=DEMO|59=1|60=20180223-19:16:31.780|167=FUT|200=201804|10=081|
2018/02/23 19:16:31.827883 8=FIX.4.2|9=338|35=8|34=77|49=KOD|52=20180223-19:16:31.824|56=BON|57=BONT|1=BONACCOUNT|6=0.000|11=ORTT1_10_S1519413391779885000|14=0|17=FUT.DEMO.201804201802231_71|20=0|22=8|31=0.000|32=0|37=FUT.DEMO.201804201802231_71|38=10|39=0|40=2|41=ORTT1_10_S1519413391779885000|44=101.000|54=2|55=DEMO|59=1|60=20180223-19:16:31.795|150=0|151=10|167=FUT|200=201804|10=026|
2018/02/23 19:16:31.885872 8=FIX.4.2|9=191|35=D|34=165|49=BON|50=BONT|52=20180223-19:16:31.882|56=KOD|1=BONACCOUNT|11=ORTT1_10_B1519413391881729000|21=1|38=10|40=2|44=99.0|54=1|55=DEMO|59=1|60=20180223-19:16:31.882|167=FUT|200=201804|10=028|
2018/02/23 19:16:31.928079 8=FIX.4.2|9=337|35=8|34=78|49=KOD|52=20180223-19:16:31.925|56=BON|57=BONT|1=BONACCOUNT|6=0.000|11=ORTT1_10_B1519413391881729000|14=0|17=FUT.DEMO.201804201802231_72|20=0|22=8|31=0.000|32=0|37=FUT.DEMO.201804201802231_72|38=10|39=0|40=2|41=ORTT1_10_B1519413391881729000|44=99.000|54=1|55=DEMO|59=1|60=20180223-19:16:31.897|150=0|151=10|167=FUT|200=201804|10=204|
2018/02/23 19:16:31.990074 8=FIX.4.2|9=192|35=D|34=166|49=BON|50=BONT|52=20180223-19:16:31.986|56=KOD|1=BONACCOUNT|11=ORTT1_10_S1519413391985805000|21=1|38=10|40=2|44=101.0|54=2|55=DEMO|59=1|60=20180223-19:16:31.986|167=FUT|200=201804|10=090|
2018/02/23 19:16:32.033102 8=FIX.4.2|9=338|35=8|34=79|49=KOD|52=20180223-19:16:32.030|56=BON|57=BONT|1=BONACCOUNT|6=0.000|11=ORTT1_10_S1519413391985805000|14=0|17=FUT.DEMO.201804201802231_73|20=0|22=8|31=0.000|32=0|37=FUT.DEMO.201804201802231_73|38=10|39=0|40=2|41=ORTT1_10_S1519413391985805000|44=101.000|54=2|55=DEMO|59=1|60=20180223-19:16:32.001|150=0|151=10|167=FUT|200=201804|10=241|
2018/02/23 19:16:32.094162 8=FIX.4.2|9=191|35=D|34=167|49=BON|50=BONT|52=20180223-19:16:32.090|56=KOD|1=BONACCOUNT|11=ORTT1_10_B1519413392089996000|21=1|38=10|40=2|44=99.0|54=1|55=DEMO|59=1|60=20180223-19:16:32.090|167=FUT|200=201804|10=021|
2018/02/23 19:16:32.136487 8=FIX.4.2|9=337|35=8|34=80|49=KOD|52=20180223-19:16:32.134|56=BON|57=BONT|1=BONACCOUNT|6=0.000|11=ORTT1_10_B1519413392089996000|14=0|17=FUT.DEMO.201804201802231_74|20=0|22=8|31=0.000|32=0|37=FUT.DEMO.201804201802231_74|38=10|39=0|40=2|41=ORTT1_10_B1519413392089996000|44=99.000|54=1|55=DEMO|59=1|60=20180223-19:16:32.106|150=0|151=10|167=FUT|200=201804|10=192|
2018/02/23 19:16:32.196960 8=FIX.4.2|9=192|35=D|34=168|49=BON|50=BONT|52=20180223-19:16:32.193|56=KOD|1=BONACCOUNT|11=ORTT1_10_S1519413392192584000|21=1|38=10|40=2|44=101.0|54=2|55=DEMO|59=1|60=20180223-19:16:32.193|167=FUT|200=201804|10=069|
2018/02/23 19:16:32.239051 8=FIX.4.2|9=338|35=8|34=81|49=KOD|52=20180223-19:16:32.236|56=BON|57=BONT|1=BONACCOUNT|6=0.000|11=ORTT1_10_S1519413392192584000|14=0|17=FUT.DEMO.201804201802231_75|20=0|22=8|31=0.000|32=0|37=FUT.DEMO.201804201802231_75|38=10|39=0|40=2|41=ORTT1_10_S1519413392192584000|44=101.000|54=2|55=DEMO|59=1|60=20180223-19:16:32.208|150=0|151=10|167=FUT|200=201804|10=245|
2018/02/23 19:16:32.299798 8=FIX.4.2|9=191|35=D|34=169|49=BON|50=BONT|52=20180223-19:16:32.296|56=KOD|1=BONACCOUNT|11=ORTT1_10_B1519413392295332000|21=1|38=10|40=2|44=99.0|54=1|55=DEMO|59=1|60=20180223-19:16:32.296|167=FUT|200=201804|10=022|
2018/02/23 19:16:32.343150 8=FIX.4.2|9=337|35=8|34=82|49=KOD|52=20180223-19:16:32.340|56=BON|57=BONT|1=BONACCOUNT|6=0.000|11=ORTT1_10_B1519413392295332000|14=0|17=FUT.DEMO.201804201802231_76|20=0|22=8|31=0.000|32=0|37=FUT.DEMO.201804201802231_76|38=10|39=0|40=2|41=ORTT1_10_B1519413392295332000|44=99.000|54=1|55=DEMO|59=1|60=20180223-19:16:32.311|150=0|151=10|167=FUT|200=201804|10=161|
2018/02/23 19:16:32.404990 8=FIX.4.2|9=192|35=D|34=170|49=BON|50=BONT|52=20180223-19:16:32.401|56=KOD|1=BONACCOUNT|11=ORTT1_10_S1519413392400122000|21=1|38=10|40=2|44=101.0|54=2|55=DEMO|59=1|60=20180223-19:16:32.401|167=FUT|200=201804|10=026|
2018/02/23 19:16:32.449092 8=FIX.4.2|9=338|35=8|34=83|49=KOD|52=20180223-19:16:32.447|56=BON|57=BONT|1=BONACCOUNT|6=0.000|11=ORTT1_10_S1519413392400122000|14=0|17=FUT.DEMO.201804201802231_77|20=0|22=8|31=0.000|32=0|37=FUT.DEMO.201804201802231_77|38=10|39=0|40=2|41=ORTT1_10_S1519413392400122000|44=101.000|54=2|55=DEMO|59=1|60=20180223-19:16:32.417|150=0|151=10|167=FUT|200=201804|10=217|
2018/02/23 19:16:32.504443 8=FIX.4.2|9=191|35=D|34=171|49=BON|50=BONT|52=20180223-19:16:32.501|56=KOD|1=BONACCOUNT|11=ORTT1_10_B1519413392500666000|21=1|38=10|40=2|44=99.0|54=1|55=DEMO|59=1|60=20180223-19:16:32.501|167=FUT|200=201804|10=248|
2018/02/23 19:16:32.548045 8=FIX.4.2|9=337|35=8|34=84|49=KOD|52=20180223-19:16:32.545|56=BON|57=BONT|1=BONACCOUNT|6=0.000|11=ORTT1_10_B1519413392500666000|14=0|17=FUT.DEMO.201804201802231_78|20=0|22=8|31=0.000|32=0|37=FUT.DEMO.201804201802231_78|38=10|39=0|40=2|41=ORTT1_10_B1519413392500666000|44=99.000|54=1|55=DEMO|59=1|60=20180223-19:16:32.516|150=0|151=10|167=FUT|200=201804|10=179|
2018/02/23 19:16:32.605053 8=FIX.4.2|9=192|35=D|34=172|49=BON|50=BONT|52=20180223-19:16:32.602|56=KOD|1=BONACCOUNT|11=ORTT1_10_S1519413392601393000|21=1|38=10|40=2|44=101.0|54=2|55=DEMO|59=1|60=20180223-19:16:32.601|167=FUT|200=201804|10=046|
2018/02/23 19:16:32.650463 8=FIX.4.2|9=338|35=8|34=85|49=KOD|52=20180223-19:16:32.648|56=BON|57=BONT|1=BONACCOUNT|6=0.000|11=ORTT1_10_S1519413392601393000|14=0|17=FUT.DEMO.201804201802231_79|20=0|22=8|31=0.000|32=0|37=FUT.DEMO.201804201802231_79|38=10|39=0|40=2|41=ORTT1_10_S1519413392601393000|44=101.000|54=2|55=DEMO|59=1|60=20180223-19:16:32.617|150=0|151=10|167=FUT|200=201804|10=254|
2018/02/23 19:16:32.710127 8=FIX.4.2|9=191|35=D|34=173|49=BON|50=BONT|52=20180223-19:16:32.706|56=KOD|1=BONACCOUNT|11=ORTT1_10_B1519413392705752000|21=1|38=10|40=2|44=99.0|54=1|55=DEMO|59=1|60=20180223-19:16:32.706|167=FUT|200=201804|10=011|
2018/02/23 19:16:32.751418 8=FIX.4.2|9=337|35=8|34=86|49=KOD|52=20180223-19:16:32.748|56=BON|57=BONT|1=BONACCOUNT|6=0.000|11=ORTT1_10_B1519413392705752000|14=0|17=FUT.DEMO.201804201802231_80|20=0|22=8|31=0.000|32=0|37=FUT.DEMO.201804201802231_80|38=10|39=0|40=2|41=ORTT1_10_B1519413392705752000|44=99.000|54=1|55=DEMO|59=1|60=20180223-19:16:32.721|150=0|151=10|167=FUT|200=201804|10=176|
2018/02/23 19:16:32.814536 8=FIX.4.2|9=192|35=D|34=174|49=BON|50=BONT|52=20180223-19:16:32.811|56=KOD|1=BONACCOUNT|11=ORTT1_10_S1519413392810453000|21=1|38=10|40=2|44=101.0|54=2|55=DEMO|59=1|60=20180223-19:16:32.811|167=FUT|200=201804|10=052|
2018/02/23 19:16:32.857172 8=FIX.4.2|9=338|35=8|34=87|49=KOD|52=20180223-19:16:32.854|56=BON|57=BONT|1=BONACCOUNT|6=0.000|11=ORTT1_10_S1519413392810453000|14=0|17=FUT.DEMO.201804201802231_81|20=0|22=8|31=0.000|32=0|37=FUT.DEMO.201804201802231_81|38=10|39=0|40=2|41=ORTT1_10_S1519413392810453000|44=101.000|54=2|55=DEMO|59=1|60=20180223-19:16:32.825|150=0|151=10|167=FUT|200=201804|10=240|
2018/02/23 19:16:32.920975 8=FIX.4.2|9=191|35=D|34=175|49=BON|50=BONT|52=20180223-19:16:32.916|56=KOD|1=BONACCOUNT|11=ORTT1_10_B1519413392915728000|21=1|38=10|40=2|44=99.0|54=1|55=DEMO|59=1|60=20180223-19:16:32.916|167=FUT|200=201804|10=025|
2018/02/23 19:16:32.964324 8=FIX.4.2|9=337|35=8|34=88|49=KOD|52=20180223-19:16:32.961|56=BON|57=BONT|1=BONACCOUNT|6=0.000|11=ORTT1_10_B1519413392915728000|14=0|17=FUT.DEMO.201804201802231_82|20=0|22=8|31=0.000|32=0|37=FUT.DEMO.201804201802231_82|38=10|39=0|40=2|41=ORTT1_10_B1519413392915728000|44=99.000|54=1|55=DEMO|59=1|60=20180223-19:16:32.933|150=0|151=10|167=FUT|200=201804|10=196|
2018/02/23 19:16:33.024185 8=FIX.4.2|9=192|35=D|34=176|49=BON|50=BONT|52=20180223-19:16:33.020|56=KOD|1=BONACCOUNT|11=ORTT1_10_S1519413393020141000|21=1|38=10|40=2|44=101.0|54=2|55=DEMO|59=1|60=20180223-19:16:33.020|167=FUT|200=201804|10=028|
2018/02/23 19:16:33.065308 8=FIX.4.2|9=338|35=8|34=89|49=KOD|52=20180223-19:16:33.062|56=BON|57=BONT|1=BONACCOUNT|6=0.000|11=ORTT1_10_S1519413393020141000|14=0|17=FUT.DEMO.201804201802231_83|20=0|22=8|31=0.000|32=0|37=FUT.DEMO.201804201802231_83|38=10|39=0|40=2|41=ORTT1_10_S1519413393020141000|44=101.000|54=2|55=DEMO|59=1|60=20180223-19:16:33.035|150=0|151=10|167=FUT|200=201804|10=208|
2018/02/23 19:16:33.128873 8=FIX.4.2|9=191|35=D|34=177|49=BON|50=BONT|52=20180223-19:16:33.125|56=KOD|1=BONACCOUNT|11=ORTT1_10_B1519413393124831000|21=1|38=10|40=2|44=99.0|54=1|55=DEMO|59=1|60=20180223-19:16:33.125|167=FUT|200=201804|10=001|
2018/02/23 19:16:33.169745 8=FIX.4.2|9=337|35=8|34=90|49=KOD|52=20180223-19:16:33.167|56=BON|57=BONT|1=BONACCOUNT|6=0.000|11=ORTT1_10_B1519413393124831000|14=0|17=FUT.DEMO.201804201802231_84|20=0|22=8|31=0.000|32=0|37=FUT.DEMO.201804201802231_84|38=10|39=0|40=2|41=ORTT1_10_B1519413393124831000|44=99.000|54=1|55=DEMO|59=1|60=20180223-19:16:33.139|150=0|151=10|167=FUT|200=201804|10=167|
2018/02/23 19:16:33.232464 8=FIX.4.2|9=192|35=D|34=178|49=BON|50=BONT|52=20180223-19:16:33.228|56=KOD|1=BONACCOUNT|11=ORTT1_10_S1519413393227467000|21=1|38=10|40=2|44=101.0|54=2|55=DEMO|59=1|60=20180223-19:16:33.228|167=FUT|200=201804|10=070|
2018/02/23 19:16:33.276335 8=FIX.4.2|9=338|35=8|34=91|49=KOD|52=20180223-19:16:33.273|56=BON|57=BONT|1=BONACCOUNT|6=0.000|11=ORTT1_10_S1519413393227467000|14=0|17=FUT.DEMO.201804201802231_85|20=0|22=8|31=0.000|32=0|37=FUT.DEMO.201804201802231_85|38=10|39=0|40=2|41=ORTT1_10_S1519413393227467000|44=101.000|54=2|55=DEMO|59=1|60=20180223-19:16:33.243|150=0|151=10|167=FUT|200=201804|10=250|
2018/02/23 19:16:33.335691 8=FIX.4.2|9=191|35=D|34=179|49=BON|50=BONT|52=20180223-19:16:33.332|56=KOD|1=BONACCOUNT|11=ORTT1_10_B1519413393331178000|21=1|38=10|40=2|44=99.0|54=1|55=DEMO|59=1|60=20180223-19:16:33.331|167=FUT|200=201804|10=006|
2018/02/23 19:16:33.381099 8=FIX.4.2|9=337|35=8|34=92|49=KOD|52=20180223-19:16:33.378|56=BON|57=BONT|1=BONACCOUNT|6=0.000|11=ORTT1_10_B1519413393331178000|14=0|17=FUT.DEMO.201804201802231_86|20=0|22=8|31=0.000|32=0|37=FUT.DEMO.201804201802231_86|38=10|39=0|40=2|41=ORTT1_10_B1519413393331178000|44=99.000|54=1|55=DEMO|59=1|60=20180223-19:16:33.348|150=0|151=10|167=FUT|200=201804|10=187|
2018/02/23 19:16:33.438779 8=FIX.4.2|9=192|35=D|34=180|49=BON|50=BONT|52=20180223-19:16:33.435|56=KOD|1=BONACCOUNT|11=ORTT1_10_S1519413393434823000|21=1|38=10|40=2|44=101.0|54=2|55=DEMO|59=1|60=20180223-19:16:33.435|167=FUT|200=201804|10=059|
2018/02/23 19:16:33.482342 8=FIX.4.2|9=338|35=8|34=93|49=KOD|52=20180223-19:16:33.480|56=BON|57=BONT|1=BONACCOUNT|6=0.000|11=ORTT1_10_S1519413393434823000|14=0|17=FUT.DEMO.201804201802231_87|20=0|22=8|31=0.000|32=0|37=FUT.DEMO.201804201802231_87|38=10|39=0|40=2|41=ORTT1_10_S1519413393434823000|44=101.000|54=2|55=DEMO|59=1|60=20180223-19:16:33.451|150=0|151=10|167=FUT|200=201804|10=249|
2018/02/23 19:16:33.542729 8=FIX.4.2|9=191|35=D|34=181|49=BON|50=BONT|52=20180223-19:16:33.539|56=KOD|1=BONACCOUNT|11=ORTT1_10_B1519413393538684000|21=1|38=10|40=2|44=99.0|54=1|55=DEMO|59=1|60=20180223-19:16:33.539|167=FUT|200=201804|10=029|
2018/02/23 19:16:33.586908 8=FIX.4.2|9=337|35=8|34=94|49=KOD|52=20180223-19:16:33.584|56=BON|57=BONT|1=BONACCOUNT|6=0.000|11=ORTT1_10_B1519413393538684000|14=0|17=FUT.DEMO.201804201802231_88|20=0|22=8|31=0.000|32=0|37=FUT.DEMO.201804201802231_88|38=10|39=0|40=2|41=ORTT1_10_B1519413393538684000|44=99.000|54=1|55=DEMO|59=1|60=20180223-19:16:33.554|150=0|151=10|167=FUT|200=201804|10=213|
2018/02/23 19:16:33.649086 8=FIX.4.2|9=192|35=D|34=182|49=BON|50=BONT|52=20180223-19:16:33.645|56=KOD|1=BONACCOUNT|11=ORTT1_10_S1519413393643876000|21=1|38=10|40=2|44=101.0|54=2|55=DEMO|59=1|60=20180223-19:16:33.645|167=FUT|200=201804|10=077|
2018/02/23 19:16:33.691924 8=FIX.4.2|9=338|35=8|34=95|49=KOD|52=20180223-19:16:33.689|56=BON|57=BONT|1=BONACCOUNT|6=0.000|11=ORTT1_10_S1519413393643876000|14=0|17=FUT.DEMO.201804201802231_89|20=0|22=8|31=0.000|32=0|37=FUT.DEMO.201804201802231_89|38=10|39=0|40=2|41=ORTT1_10_S1519413393643876000|44=101.000|54=2|55=DEMO|59=1|60=20180223-19:16:33.660|150=0|151=10|167=FUT|200=201804|10=032|
2018/02/23 19:16:33.753642 8=FIX.4.2|9=191|35=D|34=183|49=BON|50=BONT|52=20180223-19:16:33.749|56=KOD|1=BONACCOUNT|11=ORTT1_10_B1519413393748833000|21=1|38=10|40=2|44=99.0|54=1|55=DEMO|59=1|60=20180223-19:16:33.749|167=FUT|200=201804|10=036|
2018/02/23 19:16:33.796554 8=FIX.4.2|9=337|35=8|34=96|49=KOD|52=20180223-19:16:33.794|56=BON|57=BONT|1=BONACCOUNT|6=0.000|11=ORTT1_10_B1519413393748833000|14=0|17=FUT.DEMO.201804201802231_90|20=0|22=8|31=0.000|32=0|37=FUT.DEMO.201804201802231_90|38=10|39=0|40=2|41=ORTT1_10_B1519413393748833000|44=99.000|54=1|55=DEMO|59=1|60=20180223-19:16:33.764|150=0|151=10|167=FUT|200=201804|10=205|
2018/02/23 19:16:33.854598 8=FIX.4.2|9=192|35=D|34=184|49=BON|50=BONT|52=20180223-19:16:33.851|56=KOD|1=BONACCOUNT|11=ORTT1_10_S1519413393850932000|21=1|38=10|40=2|44=101.0|54=2|55=DEMO|59=1|60=20180223-19:16:33.851|167=FUT|200=201804|10=070|
2018/02/23 19:16:33.898161 8=FIX.4.2|9=338|35=8|34=97|49=KOD|52=20180223-19:16:33.895|56=BON|57=BONT|1=BONACCOUNT|6=0.000|11=ORTT1_10_S1519413393850932000|14=0|17=FUT.DEMO.201804201802231_91|20=0|22=8|31=0.000|32=0|37=FUT.DEMO.201804201802231_91|38=10|39=0|40=2|41=ORTT1_10_S1519413393850932000|44=101.000|54=2|55=DEMO|59=1|60=20180223-19:16:33.866|150=0|151=10|167=FUT|200=201804|10=013|
2018/02/23 19:16:33.954975 8=FIX.4.2|9=191|35=D|34=185|49=BON|50=BONT|52=20180223-19:16:33.952|56=KOD|1=BONACCOUNT|11=ORTT1_10_B1519413393951625000|21=1|38=10|40=2|44=99.0|54=1|55=DEMO|59=1|60=20180223-19:16:33.952|167=FUT|200=201804|10=025|
2018/02/23 19:16:34.001354 8=FIX.4.2|9=337|35=8|34=98|49=KOD|52=20180223-19:16:33.998|56=BON|57=BONT|1=BONACCOUNT|6=0.000|11=ORTT1_10_B1519413393951625000|14=0|17=FUT.DEMO.201804201802231_92|20=0|22=8|31=0.000|32=0|37=FUT.DEMO.201804201802231_92|38=10|39=0|40=2|41=ORTT1_10_B1519413393951625000|44=99.000|54=1|55=DEMO|59=1|60=20180223-19:16:33.968|150=0|151=10|167=FUT|200=201804|10=213|
2018/02/23 19:16:34.060175 8=FIX.4.2|9=192|35=D|34=186|49=BON|50=BONT|52=20180223-19:16:34.055|56=KOD|1=BONACCOUNT|11=ORTT1_10_S1519413394055366000|21=1|38=10|40=2|44=101.0|54=2|55=DEMO|59=1|60=20180223-19:16:34.055|167=FUT|200=201804|10=065|
2018/02/23 19:16:34.104192 8=FIX.4.2|9=338|35=8|34=99|49=KOD|52=20180223-19:16:34.101|56=BON|57=BONT|1=BONACCOUNT|6=0.000|11=ORTT1_10_S1519413394055366000|14=0|17=FUT.DEMO.201804201802231_93|20=0|22=8|31=0.000|32=0|37=FUT.DEMO.201804201802231_93|38=10|39=0|40=2|41=ORTT1_10_S1519413394055366000|44=101.000|54=2|55=DEMO|59=1|60=20180223-19:16:34.071|150=0|151=10|167=FUT|200=201804|10=243|
2018/02/23 19:16:34.164560 8=FIX.4.2|9=191|35=D|34=187|49=BON|50=BONT|52=20180223-19:16:34.161|56=KOD|1=BONACCOUNT|11=ORTT1_10_B1519413394160411000|21=1|38=10|40=2|44=99.0|54=1|55=DEMO|59=1|60=20180223-19:16:34.161|167=FUT|200=201804|10=255|
2018/02/23 19:16:34.208692 8=FIX.4.2|9=338|35=8|34=100|49=KOD|52=20180223-19:16:34.206|56=BON|57=BONT|1=BONACCOUNT|6=0.000|11=ORTT1_10_B1519413394160411000|14=0|17=FUT.DEMO.201804201802231_94|20=0|22=8|31=0.000|32=0|37=FUT.DEMO.201804201802231_94|38=10|39=0|40=2|41=ORTT1_10_B1519413394160411000|44=99.000|54=1|55=DEMO|59=1|60=20180223-19:16:34.176|150=0|151=10|167=FUT|200=201804|10=197|
2018/02/23 19:16:34.270652 8=FIX.4.2|9=192|35=D|34=188|49=BON|50=BONT|52=20180223-19:16:34.266|56=KOD|1=BONACCOUNT|11=ORTT1_10_S1519413394265784000|21=1|38=10|40=2|44=101.0|54=2|55=DEMO|59=1|60=20180223-19:16:34.266|167=FUT|200=201804|10=082|
2018/02/23 19:16:34.312199 8=FIX.4.2|9=339|35=8|34=101|49=KOD|52=20180223-19:16:34.310|56=BON|57=BONT|1=BONACCOUNT|6=0.000|11=ORTT1_10_S1519413394265784000|14=0|17=FUT.DEMO.201804201802231_95|20=0|22=8|31=0.000|32=0|37=FUT.DEMO.201804201802231_95|38=10|39=0|40=2|41=ORTT1_10_S1519413394265784000|44=101.000|54=2|55=DEMO|59=1|60=20180223-19:16:34.281|150=0|151=10|167=FUT|200=201804|10=043|
2018/02/23 19:16:34.374908 8=FIX.4.2|9=191|35=D|34=189|49=BON|50=BONT|52=20180223-19:16:34.371|56=KOD|1=BONACCOUNT|11=ORTT1_10_B1519413394371149000|21=1|38=10|40=2|44=99.0|54=1|55=DEMO|59=1|60=20180223-19:16:34.371|167=FUT|200=201804|10=019|
2018/02/23 19:16:34.417415 8=FIX.4.2|9=338|35=8|34=102|49=KOD|52=20180223-19:16:34.415|56=BON|57=BONT|1=BONACCOUNT|6=0.000|11=ORTT1_10_B1519413394371149000|14=0|17=FUT.DEMO.201804201802231_96|20=0|22=8|31=0.000|32=0|37=FUT.DEMO.201804201802231_96|38=10|39=0|40=2|41=ORTT1_10_B1519413394371149000|44=99.000|54=1|55=DEMO|59=1|60=20180223-19:16:34.387|150=0|151=10|167=FUT|200=201804|10=233|
2018/02/23 19:16:34.480395 8=FIX.4.2|9=192|35=D|34=190|49=BON|50=BONT|52=20180223-19:16:34.476|56=KOD|1=BONACCOUNT|11=ORTT1_10_S1519413394475922000|21=1|38=10|40=2|44=101.0|54=2|55=DEMO|59=1|60=20180223-19:16:34.476|167=FUT|200=201804|10=078|
2018/02/23 19:16:34.524436 8=FIX.4.2|9=339|35=8|34=103|49=KOD|52=20180223-19:16:34.522|56=BON|57=BONT|1=BONACCOUNT|6=0.000|11=ORTT1_10_S1519413394475922000|14=0|17=FUT.DEMO.201804201802231_97|20=0|22=8|31=0.000|32=0|37=FUT.DEMO.201804201802231_97|38=10|39=0|40=2|41=ORTT1_10_S1519413394475922000|44=101.000|54=2|55=DEMO|59=1|60=20180223-19:16:34.493|150=0|151=10|167=FUT|200=201804|10=053|
2018/02/23 19:16:34.584343 8=FIX.4.2|9=191|35=D|34=191|49=BON|50=BONT|52=20180223-19:16:34.580|56=KOD|1=BONACCOUNT|11=ORTT1_10_B1519413394579820000|21=1|38=10|40=2|44=99.0|54=1|55=DEMO|59=1|60=20180223-19:16:34.580|167=FUT|200=201804|10=022|
2018/02/23 19:16:34.623892 8=FIX.4.2|9=338|35=8|34=104|49=KOD|52=20180223-19:16:34.621|56=BON|57=BONT|1=BONACCOUNT|6=0.000|11=ORTT1_10_B1519413394579820000|14=0|17=FUT.DEMO.201804201802231_98|20=0|22=8|31=0.000|32=0|37=FUT.DEMO.201804201802231_98|38=10|39=0|40=2|41=ORTT1_10_B1519413394579820000|44=99.000|54=1|55=DEMO|59=1|60=20180223-19:16:34.594|150=0|151=10|167=FUT|200=201804|10=250|
2018/02/23 19:16:34.688715 8=FIX.4.2|9=192|35=D|34=192|49=BON|50=BONT|52=20180223-19:16:34.684|56=KOD|1=BONACCOUNT|11=ORTT1_10_S1519413394684154000|21=1|38=10|40=2|44=101.0|54=2|55=DEMO|59=1|60=20180223-19:16:34.684|167=FUT|200=201804|10=081|
2018/02/23 19:16:34.728131 8=FIX.4.2|9=339|35=8|34=105|49=KOD|52=20180223-19:16:34.726|56=BON|57=BONT|1=BONACCOUNT|6=0.000|11=ORTT1_10_S1519413394684154000|14=0|17=FUT.DEMO.201804201802231_99|20=0|22=8|31=0.000|32=0|37=FUT.DEMO.201804201802231_99|38=10|39=0|40=2|41=ORTT1_10_S1519413394684154000|44=101.000|54=2|55=DEMO|59=1|60=20180223-19:16:34.699|150=0|151=10|167=FUT|200=201804|10=071|
2018/02/23 19:16:34.792555 8=FIX.4.2|9=191|35=D|34=193|49=BON|50=BONT|52=20180223-19:16:34.789|56=KOD|1=BONACCOUNT|11=ORTT1_10_B1519413394788591000|21=1|38=10|40=2|44=99.0|54=1|55=DEMO|59=1|60=20180223-19:16:34.789|167=FUT|200=201804|10=053|
2018/02/23 19:16:34.835829 8=FIX.4.2|9=340|35=8|34=106|49=KOD|52=20180223-19:16:34.832|56=BON|57=BONT|1=BONACCOUNT|6=0.000|11=ORTT1_10_B1519413394788591000|14=0|17=FUT.DEMO.201804201802231_100|20=0|22=8|31=0.000|32=0|37=FUT.DEMO.201804201802231_100|38=10|39=0|40=2|41=ORTT1_10_B1519413394788591000|44=99.000|54=1|55=DEMO|59=1|60=20180223-19:16:34.804|150=0|151=10|167=FUT|200=201804|10=065|
2018/02/23 19:16:34.896967 8=FIX.4.2|9=192|35=D|34=194|49=BON|50=BONT|52=20180223-19:16:34.893|56=KOD|1=BONACCOUNT|11=ORTT1_10_S1519413394892856000|21=1|38=10|40=2|44=101.0|54=2|55=DEMO|59=1|60=20180223-19:16:34.893|167=FUT|200=201804|10=097|
2018/02/23 19:16:34.940457 8=FIX.4.2|9=341|35=8|34=107|49=KOD|52=20180223-19:16:34.938|56=BON|57=BONT|1=BONACCOUNT|6=0.000|11=ORTT1_10_S1519413394892856000|14=0|17=FUT.DEMO.201804201802231_101|20=0|22=8|31=0.000|32=0|37=FUT.DEMO.201804201802231_101|38=10|39=0|40=2|41=ORTT1_10_S1519413394892856000|44=101.000|54=2|55=DEMO|59=1|60=20180223-19:16:34.908|150=0|151=10|167=FUT|200=201804|10=148|
2018/02/23 19:16:35.000389 8=FIX.4.2|9=191|35=D|34=195|49=BON|50=BONT|52=20180223-19:16:34.997|56=KOD|1=BONACCOUNT|11=ORTT1_10_B1519413394996044000|21=1|38=10|40=2|44=99.0|54=1|55=DEMO|59=1|60=20180223-19:16:34.997|167=FUT|200=201804|10=051|
2018/02/23 19:16:35.045310 8=FIX.4.2|9=340|35=8|34=108|49=KOD|52=20180223-19:16:35.043|56=BON|57=BONT|1=BONACCOUNT|6=0.000|11=ORTT1_10_B1519413394996044000|14=0|17=FUT.DEMO.201804201802231_102|20=0|22=8|31=0.000|32=0|37=FUT.DEMO.201804201802231_102|38=10|39=0|40=2|41=ORTT1_10_B1519413394996044000|44=99.000|54=1|55=DEMO|59=1|60=20180223-19:16:35.013|150=0|151=10|167=FUT|200=201804|10=047|
2018/02/23 19:16:35.103721 8=FIX.4.2|9=192|35=D|34=196|49=BON|50=BONT|52=20180223-19:16:35.100|56=KOD|1=BONACCOUNT|11=ORTT1_10_S1519413395099915000|21=1|38=10|40=2|44=101.0|54=2|55=DEMO|59=1|60=20180223-19:16:35.100|167=FUT|200=201804|10=059|
2018/02/23 19:16:35.145874 8=FIX.4.2|9=341|35=8|34=109|49=KOD|52=20180223-19:16:35.143|56=BON|57=BONT|1=BONACCOUNT|6=0.000|11=ORTT1_10_S1519413395099915000|14=0|17=FUT.DEMO.201804201802231_103|20=0|22=8|31=0.000|32=0|37=FUT.DEMO.201804201802231_103|38=10|39=0|40=2|41=ORTT1_10_S1519413395099915000|44=101.000|54=2|55=DEMO|59=1|60=20180223-19:16:35.115|150=0|151=10|167=FUT|200=201804|10=126|
2018/02/23 19:16:35.204851 8=FIX.4.2|9=191|35=D|34=197|49=BON|50=BONT|52=20180223-19:16:35.201|56=KOD|1=BONACCOUNT|11=ORTT1_10_B1519413395201291000|21=1|38=10|40=2|44=99.0|54=1|55=DEMO|59=1|60=20180223-19:16:35.201|167=FUT|200=201804|10=251|
2018/02/23 19:16:35.248175 8=FIX.4.2|9=340|35=8|34=110|49=KOD|52=20180223-19:16:35.245|56=BON|57=BONT|1=BONACCOUNT|6=0.000|11=ORTT1_10_B1519413395201291000|14=0|17=FUT.DEMO.201804201802231_104|20=0|22=8|31=0.000|32=0|37=FUT.DEMO.201804201802231_104|38=10|39=0|40=2|41=ORTT1_10_B1519413395201291000|44=99.000|54=1|55=DEMO|59=1|60=20180223-19:16:35.216|150=0|151=10|167=FUT|200=201804|10=021|
2018/02/23 19:16:35.306601 8=FIX.4.2|9=192|35=D|34=198|49=BON|50=BONT|52=20180223-19:16:35.303|56=KOD|1=BONACCOUNT|11=ORTT1_10_S1519413395302240000|21=1|38=10|40=2|44=101.0|54=2|55=DEMO|59=1|60=20180223-19:16:35.302|167=FUT|200=201804|10=048|
2018/02/23 19:16:35.350114 8=FIX.4.2|9=341|35=8|34=111|49=KOD|52=20180223-19:16:35.347|56=BON|57=BONT|1=BONACCOUNT|6=0.000|11=ORTT1_10_S1519413395302240000|14=0|17=FUT.DEMO.201804201802231_105|20=0|22=8|31=0.000|32=0|37=FUT.DEMO.201804201802231_105|38=10|39=0|40=2|41=ORTT1_10_S1519413395302240000|44=101.000|54=2|55=DEMO|59=1|60=20180223-19:16:35.318|150=0|151=10|167=FUT|200=201804|10=090|
2018/02/23 19:16:35.409716 8=FIX.4.2|9=191|35=D|34=199|49=BON|50=BONT|52=20180223-19:16:35.406|56=KOD|1=BONACCOUNT|11=ORTT1_10_B1519413395406034000|21=1|38=10|40=2|44=99.0|54=1|55=DEMO|59=1|60=20180223-19:16:35.406|167=FUT|200=201804|10=013|
2018/02/23 19:16:35.452845 8=FIX.4.2|9=340|35=8|34=112|49=KOD|52=20180223-19:16:35.450|56=BON|57=BONT|1=BONACCOUNT|6=0.000|11=ORTT1_10_B1519413395406034000|14=0|17=FUT.DEMO.201804201802231_106|20=0|22=8|31=0.000|32=0|37=FUT.DEMO.201804201802231_106|38=10|39=0|40=2|41=ORTT1_10_B1519413395406034000|44=99.000|54=1|55=DEMO|59=1|60=20180223-19:16:35.421|150=0|151=10|167=FUT|200=201804|10=027|
2018/02/23 19:16:35.514883 8=FIX.4.2|9=192|35=D|34=200|49=BON|50=BONT|52=20180223-19:16:35.511|56=KOD|1=BONACCOUNT|11=ORTT1_10_S1519413395510363000|21=1|38=10|40=2|44=101.0|54=2|55=DEMO|59=1|60=20180223-19:16:35.511|167=FUT|200=201804|10=042|
2018/02/23 19:16:35.558928 8=FIX.4.2|9=341|35=8|34=113|49=KOD|52=20180223-19:16:35.556|56=BON|57=BONT|1=BONACCOUNT|6=0.000|11=ORTT1_10_S1519413395510363000|14=0|17=FUT.DEMO.201804201802231_107|20=0|22=8|31=0.000|32=0|37=FUT.DEMO.201804201802231_107|38=10|39=0|40=2|41=ORTT1_10_S1519413395510363000|44=101.000|54=2|55=DEMO|59=1|60=20180223-19:16:35.527|150=0|151=10|167=FUT|200=201804|10=114|
2018/02/23 19:16:35.620056 8=FIX.4.2|9=191|35=D|34=201|49=BON|50=BONT|52=20180223-19:16:35.616|56=KOD|1=BONACCOUNT|11=ORTT1_10_B1519413395615237000|21=1|38=10|40=2|44=99.0|54=1|55=DEMO|59=1|60=20180223-19:16:35.616|167=FUT|200=201804|10=010|
2018/02/23 19:16:35.663572 8=FIX.4.2|9=340|35=8|34=114|49=KOD|52=20180223-19:16:35.661|56=BON|57=BONT|1=BONACCOUNT|6=0.000|11=ORTT1_10_B1519413395615237000|14=0|17=FUT.DEMO.201804201802231_108|20=0|22=8|31=0.000|32=0|37=FUT.DEMO.201804201802231_108|38=10|39=0|40=2|41=ORTT1_10_B1519413395615237000|44=99.000|54=1|55=DEMO|59=1|60=20180223-19:16:35.632|150=0|151=10|167=FUT|200=201804|10=055|
2018/02/23 19:16:35.722463 8=FIX.4.2|9=192|35=D|34=202|49=BON|50=BONT|52=20180223-19:16:35.719|56=KOD|1=BONACCOUNT|11=ORTT1_10_S1519413395717653000|21=1|38=10|40=2|44=101.0|54=2|55=DEMO|59=1|60=20180223-19:16:35.718|167=FUT|200=201804|10=074|
2018/02/23 19:16:35.766777 8=FIX.4.2|9=341|35=8|34=115|49=KOD|52=20180223-19:16:35.764|56=BON|57=BONT|1=BONACCOUNT|6=0.000|11=ORTT1_10_S1519413395717653000|14=0|17=FUT.DEMO.201804201802231_109|20=0|22=8|31=0.000|32=0|37=FUT.DEMO.201804201802231_109|38=10|39=0|40=2|41=ORTT1_10_S1519413395717653000|44=101.000|54=2|55=DEMO|59=1|60=20180223-19:16:35.735|150=0|151=10|167=FUT|200=201804|10=144|
2018/02/23 19:16:35.825235 8=FIX.4.2|9=191|35=D|34=203|49=BON|50=BONT|52=20180223-19:16:35.821|56=KOD|1=BONACCOUNT|11=ORTT1_10_B1519413395821199000|21=1|38=10|40=2|44=99.0|54=1|55=DEMO|59=1|60=20180223-19:16:35.821|167=FUT|200=201804|10=014|
2018/02/23 19:16:35.868970 8=FIX.4.2|9=340|35=8|34=116|49=KOD|52=20180223-19:16:35.866|56=BON|57=BONT|1=BONACCOUNT|6=0.000|11=ORTT1_10_B1519413395821199000|14=0|17=FUT.DEMO.201804201802231_110|20=0|22=8|31=0.000|32=0|37=FUT.DEMO.201804201802231_110|38=10|39=0|40=2|41=ORTT1_10_B1519413395821199000|44=99.000|54=1|55=DEMO|59=1|60=20180223-19:16:35.837|150=0|151=10|167=FUT|200=201804|10=069|
2018/02/23 19:16:35.926529 8=FIX.4.2|9=192|35=D|34=204|49=BON|50=BONT|52=20180223-19:16:35.923|56=KOD|1=BONACCOUNT|11=ORTT1_10_S1519413395922841000|21=1|38=10|40=2|44=101.0|54=2|55=DEMO|59=1|60=20180223-19:16:35.923|167=FUT|200=201804|10=068|
2018/02/23 19:16:35.968594 8=FIX.4.2|9=341|35=8|34=117|49=KOD|52=20180223-19:16:35.965|56=BON|57=BONT|1=BONACCOUNT|6=0.000|11=ORTT1_10_S1519413395922841000|14=0|17=FUT.DEMO.201804201802231_111|20=0|22=8|31=0.000|32=0|37=FUT.DEMO.201804201802231_111|38=10|39=0|40=2|41=ORTT1_10_S1519413395922841000|44=101.000|54=2|55=DEMO|59=1|60=20180223-19:16:35.938|150=0|151=10|167=FUT|200=201804|10=134|
2018/02/23 19:16:36.032103 8=FIX.4.2|9=191|35=D|34=205|49=BON|50=BONT|52=20180223-19:16:36.028|56=KOD|1=BONACCOUNT|11=ORTT1_10_B1519413396027691000|21=1|38=10|40=2|44=99.0|54=1|55=DEMO|59=1|60=20180223-19:16:36.028|167=FUT|200=201804|10=012|
2018/02/23 19:16:36.075334 8=FIX.4.2|9=340|35=8|34=118|49=KOD|52=20180223-19:16:36.073|56=BON|57=BONT|1=BONACCOUNT|6=0.000|11=ORTT1_10_B1519413396027691000|14=0|17=FUT.DEMO.201804201802231_112|20=0|22=8|31=0.000|32=0|37=FUT.DEMO.201804201802231_112|38=10|39=0|40=2|41=ORTT1_10_B1519413396027691000|44=99.000|54=1|55=DEMO|59=1|60=20180223-19:16:36.044|150=0|151=10|167=FUT|200=201804|10=049|
2018/02/23 19:16:36.134528 8=FIX.4.2|9=192|35=D|34=206|49=BON|50=BONT|52=20180223-19:16:36.130|56=KOD|1=BONACCOUNT|11=ORTT1_10_S1519413396130183000|21=1|38=10|40=2|44=101.0|54=2|55=DEMO|59=1|60=20180223-19:16:36.130|167=FUT|200=201804|10=043|
2018/02/23 19:16:36.180935 8=FIX.4.2|9=341|35=8|34=119|49=KOD|52=20180223-19:16:36.178|56=BON|57=BONT|1=BONACCOUNT|6=0.000|11=ORTT1_10_S1519413396130183000|14=0|17=FUT.DEMO.201804201802231_113|20=0|22=8|31=0.000|32=0|37=FUT.DEMO.201804201802231_113|38=10|39=0|40=2|41=ORTT1_10_S1519413396130183000|44=101.000|54=2|55=DEMO|59=1|60=20180223-19:16:36.147|150=0|151=10|167=FUT|200=201804|10=112|
2018/02/23 19:16:36.236634 8=FIX.4.2|9=191|35=D|34=207|49=BON|50=BONT|52=20180223-19:16:36.233|56=KOD|1=BONACCOUNT|11=ORTT1_10_B1519413396232496000|21=1|38=10|40=2|44=99.0|54=1|55=DEMO|59=1|60=20180223-19:16:36.233|167=FUT|200=201804|10=011|
2018/02/23 19:16:36.275199 8=FIX.4.2|9=340|35=8|34=120|49=KOD|52=20180223-19:16:36.272|56=BON|57=BONT|1=BONACCOUNT|6=0.000|11=ORTT1_10_B1519413396232496000|14=0|17=FUT.DEMO.201804201802231_114|20=0|22=8|31=0.000|32=0|37=FUT.DEMO.201804201802231_114|38=10|39=0|40=2|41=ORTT1_10_B1519413396232496000|44=99.000|54=1|55=DEMO|59=1|60=20180223-19:16:36.247|150=0|151=10|167=FUT|200=201804|10=054|
2018/02/23 19:16:36.340704 8=FIX.4.2|9=192|35=D|34=208|49=BON|50=BONT|52=20180223-19:16:36.337|56=KOD|1=BONACCOUNT|11=ORTT1_10_S1519413396336717000|21=1|38=10|40=2|44=101.0|54=2|55=DEMO|59=1|60=20180223-19:16:36.337|167=FUT|200=201804|10=074|
2018/02/23 19:16:36.382459 8=FIX.4.2|9=341|35=8|34=121|49=KOD|52=20180223-19:16:36.379|56=BON|57=BONT|1=BONACCOUNT|6=0.000|11=ORTT1_10_S1519413396336717000|14=0|17=FUT.DEMO.201804201802231_115|20=0|22=8|31=0.000|32=0|37=FUT.DEMO.201804201802231_115|38=10|39=0|40=2|41=ORTT1_10_S1519413396336717000|44=101.000|54=2|55=DEMO|59=1|60=20180223-19:16:36.351|150=0|151=10|167=FUT|200=201804|10=131|
2018/02/23 19:16:36.444612 8=FIX.4.2|9=191|35=D|34=209|49=BON|50=BONT|52=20180223-19:16:36.441|56=KOD|1=BONACCOUNT|11=ORTT1_10_B1519413396440384000|21=1|38=10|40=2|44=99.0|54=1|55=DEMO|59=1|60=20180223-19:16:36.440|167=FUT|200=201804|10=011|
2018/02/23 19:16:36.491198 8=FIX.4.2|9=340|35=8|34=122|49=KOD|52=20180223-19:16:36.488|56=BON|57=BONT|1=BONACCOUNT|6=0.000|11=ORTT1_10_B1519413396440384000|14=0|17=FUT.DEMO.201804201802231_116|20=0|22=8|31=0.000|32=0|37=FUT.DEMO.201804201802231_116|38=10|39=0|40=2|41=ORTT1_10_B1519413396440384000|44=99.000|54=1|55=DEMO|59=1|60=20180223-19:16:36.456|150=0|151=10|167=FUT|200=201804|10=065|
2018/02/23 19:16:36.545944 8=FIX.4.2|9=192|35=D|34=210|49=BON|50=BONT|52=20180223-19:16:36.542|56=KOD|1=BONACCOUNT|11=ORTT1_10_S1519413396541791000|21=1|38=10|40=2|44=101.0|54=2|55=DEMO|59=1|60=20180223-19:16:36.542|167=FUT|200=201804|10=063|
2018/02/23 19:16:36.591932 8=FIX.4.2|9=341|35=8|34=123|49=KOD|52=20180223-19:16:36.589|56=BON|57=BONT|1=BONACCOUNT|6=0.000|11=ORTT1_10_S1519413396541791000|14=0|17=FUT.DEMO.201804201802231_117|20=0|22=8|31=0.000|32=0|37=FUT.DEMO.201804201802231_117|38=10|39=0|40=2|41=ORTT1_10_S1519413396541791000|44=101.000|54=2|55=DEMO|59=1|60=20180223-19:16:36.558|150=0|151=10|167=FUT|200=201804|10=149|
2018/02/23 19:16:36.647281 8=FIX.4.2|9=191|35=D|34=211|49=BON|50=BONT|52=20180223-19:16:36.644|56=KOD|1=BONACCOUNT|11=ORTT1_10_B1519413396643231000|21=1|38=10|40=2|44=99.0|54=1|55=DEMO|59=1|60=20180223-19:16:36.643|167=FUT|200=201804|10=010|
2018/02/23 19:16:36.691320 8=FIX.4.2|9=340|35=8|34=124|49=KOD|52=20180223-19:16:36.689|56=BON|57=BONT|1=BONACCOUNT|6=0.000|11=ORTT1_10_B1519413396643231000|14=0|17=FUT.DEMO.201804201802231_118|20=0|22=8|31=0.000|32=0|37=FUT.DEMO.201804201802231_118|38=10|39=0|40=2|41=ORTT1_10_B1519413396643231000|44=99.000|54=1|55=DEMO|59=1|60=20180223-19:16:36.659|150=0|151=10|167=FUT|200=201804|10=071|
2018/02/23 19:16:36.752451 8=FIX.4.2|9=192|35=D|34=212|49=BON|50=BONT|52=20180223-19:16:36.748|56=KOD|1=BONACCOUNT|11=ORTT1_10_S1519413396747816000|21=1|38=10|40=2|44=101.0|54=2|55=DEMO|59=1|60=20180223-19:16:36.748|167=FUT|200=201804|10=087|
2018/02/23 19:16:36.796142 8=FIX.4.2|9=341|35=8|34=125|49=KOD|52=20180223-19:16:36.793|56=BON|57=BONT|1=BONACCOUNT|6=0.000|11=ORTT1_10_S1519413396747816000|14=0|17=FUT.DEMO.201804201802231_119|20=0|22=8|31=0.000|32=0|37=FUT.DEMO.201804201802231_119|38=10|39=0|40=2|41=ORTT1_10_S1519413396747816000|44=101.000|54=2|55=DEMO|59=1|60=20180223-19:16:36.763|150=0|151=10|167=FUT|200=201804|10=162|
2018/02/23 19:16:36.854802 8=FIX.4.2|9=191|35=D|34=213|49=BON|50=BONT|52=20180223-19:16:36.851|56=KOD|1=BONACCOUNT|11=ORTT1_10_B1519413396850177000|21=1|38=10|40=2|44=99.0|54=1|55=DEMO|59=1|60=20180223-19:16:36.851|167=FUT|200=201804|10=022|
2018/02/23 19:16:36.898387 8=FIX.4.2|9=340|35=8|34=126|49=KOD|52=20180223-19:16:36.896|56=BON|57=BONT|1=BONACCOUNT|6=0.000|11=ORTT1_10_B1519413396850177000|14=0|17=FUT.DEMO.201804201802231_120|20=0|22=8|31=0.000|32=0|37=FUT.DEMO.201804201802231_120|38=10|39=0|40=2|41=ORTT1_10_B1519413396850177000|44=99.000|54=1|55=DEMO|59=1|60=20180223-19:16:36.866|150=0|151=10|167=FUT|200=201804|10=077|
2018/02/23 19:16:36.956034 8=FIX.4.2|9=192|35=D|34=214|49=BON|50=BONT|52=20180223-19:16:36.953|56=KOD|1=BONACCOUNT|11=ORTT1_10_S1519413396952514000|21=1|38=10|40=2|44=101.0|54=2|55=DEMO|59=1|60=20180223-19:16:36.952|167=FUT|200=201804|10=077|
2018/02/23 19:16:36.998117 8=FIX.4.2|9=341|35=8|34=127|49=KOD|52=20180223-19:16:36.995|56=BON|57=BONT|1=BONACCOUNT|6=0.000|11=ORTT1_10_S1519413396952514000|14=0|17=FUT.DEMO.201804201802231_121|20=0|22=8|31=0.000|32=0|37=FUT.DEMO.201804201802231_121|38=10|39=0|40=2|41=ORTT1_10_S1519413396952514000|44=101.000|54=2|55=DEMO|59=1|60=20180223-19:16:36.967|150=0|151=10|167=FUT|200=201804|10=146|
2018/02/23 19:16:37.060020 8=FIX.4.2|9=191|35=D|34=215|49=BON|50=BONT|52=20180223-19:16:37.056|56=KOD|1=BONACCOUNT|11=ORTT1_10_B1519413397056427000|21=1|38=10|40=2|44=99.0|54=1|55=DEMO|59=1|60=20180223-19:16:37.056|167=FUT|200=201804|10=017|
2018/02/23 19:16:37.102595 8=FIX.4.2|9=340|35=8|34=128|49=KOD|52=20180223-19:16:37.100|56=BON|57=BONT|1=BONACCOUNT|6=0.000|11=ORTT1_10_B1519413397056427000|14=0|17=FUT.DEMO.201804201802231_122|20=0|22=8|31=0.000|32=0|37=FUT.DEMO.201804201802231_122|38=10|39=0|40=2|41=ORTT1_10_B1519413397056427000|44=99.000|54=1|55=DEMO|59=1|60=20180223-19:16:37.072|150=0|151=10|167=FUT|200=201804|10=046|
2018/02/23 19:16:37.163941 8=FIX.4.2|9=192|35=D|34=216|49=BON|50=BONT|52=20180223-19:16:37.160|56=KOD|1=BONACCOUNT|11=ORTT1_10_S1519413397159890000|21=1|38=10|40=2|44=101.0|54=2|55=DEMO|59=1|60=20180223-19:16:37.160|167=FUT|200=201804|10=069|
2018/02/23 19:16:37.206337 8=FIX.4.2|9=341|35=8|34=129|49=KOD|52=20180223-19:16:37.204|56=BON|57=BONT|1=BONACCOUNT|6=0.000|11=ORTT1_10_S1519413397159890000|14=0|17=FUT.DEMO.201804201802231_123|20=0|22=8|31=0.000|32=0|37=FUT.DEMO.201804201802231_123|38=10|39=0|40=2|41=ORTT1_10_S1519413397159890000|44=101.000|54=2|55=DEMO|59=1|60=20180223-19:16:37.175|150=0|151=10|167=FUT|200=201804|10=142|
2018/02/23 19:16:37.266722 8=FIX.4.2|9=191|35=D|34=217|49=BON|50=BONT|52=20180223-19:16:37.263|56=KOD|1=BONACCOUNT|11=ORTT1_10_B1519413397261851000|21=1|38=10|40=2|44=99.0|54=1|55=DEMO|59=1|60=20180223-19:16:37.263|167=FUT|200=201804|10=018|
2018/02/23 19:16:37.311087 8=FIX.4.2|9=340|35=8|34=130|49=KOD|52=20180223-19:16:37.308|56=BON|57=BONT|1=BONACCOUNT|6=0.000|11=ORTT1_10_B1519413397261851000|14=0|17=FUT.DEMO.201804201802231_124|20=0|22=8|31=0.000|32=0|37=FUT.DEMO.201804201802231_124|38=10|39=0|40=2|41=ORTT1_10_B1519413397261851000|44=99.000|54=1|55=DEMO|59=1|60=20180223-19:16:37.279|150=0|151=10|167=FUT|200=201804|10=060|
2018/02/23 19:16:37.371867 8=FIX.4.2|9=192|35=D|34=218|49=BON|50=BONT|52=20180223-19:16:37.368|56=KOD|1=BONACCOUNT|11=ORTT1_10_S1519413397365731000|21=1|38=10|40=2|44=101.0|54=2|55=DEMO|59=1|60=20180223-19:16:37.366|167=FUT|200=201804|10=082|
2018/02/23 19:16:37.416962 8=FIX.4.2|9=341|35=8|34=131|49=KOD|52=20180223-19:16:37.414|56=BON|57=BONT|1=BONACCOUNT|6=0.000|11=ORTT1_10_S1519413397365731000|14=0|17=FUT.DEMO.201804201802231_125|20=0|22=8|31=0.000|32=0|37=FUT.DEMO.201804201802231_125|38=10|39=0|40=2|41=ORTT1_10_S1519413397365731000|44=101.000|54=2|55=DEMO|59=1|60=20180223-19:16:37.383|150=0|151=10|167=FUT|200=201804|10=129|
2018/02/23 19:16:37.474539 8=FIX.4.2|9=191|35=D|34=219|49=BON|50=BONT|52=20180223-19:16:37.470|56=KOD|1=BONACCOUNT|11=ORTT1_10_B1519413397469560000|21=1|38=10|40=2|44=99.0|54=1|55=DEMO|59=1|60=20180223-19:16:37.470|167=FUT|200=201804|10=027|
2018/02/23 19:16:37.528221 8=FIX.4.2|9=340|35=8|34=132|49=KOD|52=20180223-19:16:37.525|56=BON|57=BONT|1=BONACCOUNT|6=0.000|11=ORTT1_10_B1519413397469560000|14=0|17=FUT.DEMO.201804201802231_126|20=0|22=8|31=0.000|32=0|37=FUT.DEMO.201804201802231_126|38=10|39=0|40=2|41=ORTT1_10_B1519413397469560000|44=99.000|54=1|55=DEMO|59=1|60=20180223-19:16:37.486|150=0|151=10|167=FUT|200=201804|10=081|
2018/02/23 19:16:37.577910 8=FIX.4.2|9=192|35=D|34=220|49=BON|50=BONT|52=20180223-19:16:37.574|56=KOD|1=BONACCOUNT|11=ORTT1_10_S1519413397574145000|21=1|38=10|40=2|44=101.0|54=2|55=DEMO|59=1|60=20180223-19:16:37.574|167=FUT|200=201804|10=076|
2018/02/23 19:16:37.622047 8=FIX.4.2|9=341|35=8|34=133|49=KOD|52=20180223-19:16:37.619|56=BON|57=BONT|1=BONACCOUNT|6=0.000|11=ORTT1_10_S1519413397574145000|14=0|17=FUT.DEMO.201804201802231_127|20=0|22=8|31=0.000|32=0|37=FUT.DEMO.201804201802231_127|38=10|39=0|40=2|41=ORTT1_10_S1519413397574145000|44=101.000|54=2|55=DEMO|59=1|60=20180223-19:16:37.591|150=0|151=10|167=FUT|200=201804|10=145|
2018/02/23 19:16:37.683026 8=FIX.4.2|9=191|35=D|34=221|49=BON|50=BONT|52=20180223-19:16:37.679|56=KOD|1=BONACCOUNT|11=ORTT1_10_B1519413397678315000|21=1|38=10|40=2|44=99.0|54=1|55=DEMO|59=1|60=20180223-19:16:37.679|167=FUT|200=201804|10=042|
2018/02/23 19:16:37.727102 8=FIX.4.2|9=340|35=8|34=134|49=KOD|52=20180223-19:16:37.724|56=BON|57=BONT|1=BONACCOUNT|6=0.000|11=ORTT1_10_B1519413397678315000|14=0|17=FUT.DEMO.201804201802231_128|20=0|22=8|31=0.000|32=0|37=FUT.DEMO.201804201802231_128|38=10|39=0|40=2|41=ORTT1_10_B1519413397678315000|44=99.000|54=1|55=DEMO|59=1|60=20180223-19:16:37.694|150=0|151=10|167=FUT|200=201804|10=089|
2018/02/23 19:16:37.786927 8=FIX.4.2|9=192|35=D|34=222|49=BON|50=BONT|52=20180223-19:16:37.783|56=KOD|1=BONACCOUNT|11=ORTT1_10_S1519413397783007000|21=1|38=10|40=2|44=101.0|54=2|55=DEMO|59=1|60=20180223-19:16:37.783|167=FUT|200=201804|10=081|
2018/02/23 19:16:37.828615 8=FIX.4.2|9=341|35=8|34=135|49=KOD|52=20180223-19:16:37.826|56=BON|57=BONT|1=BONACCOUNT|6=0.000|11=ORTT1_10_S1519413397783007000|14=0|17=FUT.DEMO.201804201802231_129|20=0|22=8|31=0.000|32=0|37=FUT.DEMO.201804201802231_129|38=10|39=0|40=2|41=ORTT1_10_S1519413397783007000|44=101.000|54=2|55=DEMO|59=1|60=20180223-19:16:37.798|150=0|151=10|167=FUT|200=201804|10=158|
2018/02/23 19:16:37.892460 8=FIX.4.2|9=191|35=D|34=223|49=BON|50=BONT|52=20180223-19:16:37.889|56=KOD|1=BONACCOUNT|11=ORTT1_10_B1519413397888515000|21=1|38=10|40=2|44=99.0|54=1|55=DEMO|59=1|60=20180223-19:16:37.889|167=FUT|200=201804|10=055|
2018/02/23 19:16:37.937352 8=FIX.4.2|9=340|35=8|34=136|49=KOD|52=20180223-19:16:37.935|56=BON|57=BONT|1=BONACCOUNT|6=0.000|11=ORTT1_10_B1519413397888515000|14=0|17=FUT.DEMO.201804201802231_130|20=0|22=8|31=0.000|32=0|37=FUT.DEMO.201804201802231_130|38=10|39=0|40=2|41=ORTT1_10_B1519413397888515000|44=99.000|54=1|55=DEMO|59=1|60=20180223-19:16:37.904|150=0|151=10|167=FUT|200=201804|10=085|
2018/02/23 19:16:37.996587 8=FIX.4.2|9=192|35=D|34=224|49=BON|50=BONT|52=20180223-19:16:37.992|56=KOD|1=BONACCOUNT|11=ORTT1_10_S1519413397992299000|21=1|38=10|40=2|44=101.0|54=2|55=DEMO|59=1|60=20180223-19:16:37.992|167=FUT|200=201804|10=102|
2018/02/23 19:16:38.041386 8=FIX.4.2|9=341|35=8|34=137|49=KOD|52=20180223-19:16:38.039|56=BON|57=BONT|1=BONACCOUNT|6=0.000|11=ORTT1_10_S1519413397992299000|14=0|17=FUT.DEMO.201804201802231_131|20=0|22=8|31=0.000|32=0|37=FUT.DEMO.201804201802231_131|38=10|39=0|40=2|41=ORTT1_10_S1519413397992299000|44=101.000|54=2|55=DEMO|59=1|60=20180223-19:16:38.008|150=0|151=10|167=FUT|200=201804|10=158|
2018/02/23 19:16:38.100804 8=FIX.4.2|9=191|35=D|34=225|49=BON|50=BONT|52=20180223-19:16:38.096|56=KOD|1=BONACCOUNT|11=ORTT1_10_B1519413398095539000|21=1|38=10|40=2|44=99.0|54=1|55=DEMO|59=1|60=20180223-19:16:38.096|167=FUT|200=201804|10=036|
2018/02/23 19:16:38.145941 8=FIX.4.2|9=340|35=8|34=138|49=KOD|52=20180223-19:16:38.143|56=BON|57=BONT|1=BONACCOUNT|6=0.000|11=ORTT1_10_B1519413398095539000|14=0|17=FUT.DEMO.201804201802231_132|20=0|22=8|31=0.000|32=0|37=FUT.DEMO.201804201802231_132|38=10|39=0|40=2|41=ORTT1_10_B1519413398095539000|44=99.000|54=1|55=DEMO|59=1|60=20180223-19:16:38.112|150=0|151=10|167=FUT|200=201804|10=069|
2018/02/23 19:16:38.204584 8=FIX.4.2|9=192|35=D|34=226|49=BON|50=BONT|52=20180223-19:16:38.201|56=KOD|1=BONACCOUNT|11=ORTT1_10_S1519413398200654000|21=1|38=10|40=2|44=101.0|54=2|55=DEMO|59=1|60=20180223-19:16:38.201|167=FUT|200=201804|10=050|
2018/02/23 19:16:38.247466 8=FIX.4.2|9=341|35=8|34=139|49=KOD|52=20180223-19:16:38.245|56=BON|57=BONT|1=BONACCOUNT|6=0.000|11=ORTT1_10_S1519413398200654000|14=0|17=FUT.DEMO.201804201802231_133|20=0|22=8|31=0.000|32=0|37=FUT.DEMO.201804201802231_133|38=10|39=0|40=2|41=ORTT1_10_S1519413398200654000|44=101.000|54=2|55=DEMO|59=1|60=20180223-19:16:38.216|150=0|151=10|167=FUT|200=201804|10=120|
2018/02/23 19:16:38.305460 8=FIX.4.2|9=191|35=D|34=227|49=BON|50=BONT|52=20180223-19:16:38.302|56=KOD|1=BONACCOUNT|11=ORTT1_10_B1519413398301489000|21=1|38=10|40=2|44=99.0|54=1|55=DEMO|59=1|60=20180223-19:16:38.302|167=FUT|200=201804|10=012|
2018/02/23 19:16:38.349250 8=FIX.4.2|9=340|35=8|34=140|49=KOD|52=20180223-19:16:38.347|56=BON|57=BONT|1=BONACCOUNT|6=0.000|11=ORTT1_10_B1519413398301489000|14=0|17=FUT.DEMO.201804201802231_134|20=0|22=8|31=0.000|32=0|37=FUT.DEMO.201804201802231_134|38=10|39=0|40=2|41=ORTT1_10_B1519413398301489000|44=99.000|54=1|55=DEMO|59=1|60=20180223-19:16:38.318|150=0|151=10|167=FUT|200=201804|10=068|
2018/02/23 19:16:38.410474 8=FIX.4.2|9=192|35=D|34=228|49=BON|50=BONT|52=20180223-19:16:38.406|56=KOD|1=BONACCOUNT|11=ORTT1_10_S1519413398405890000|21=1|38=10|40=2|44=101.0|54=2|55=DEMO|59=1|60=20180223-19:16:38.406|167=FUT|200=201804|10=075|
2018/02/23 19:16:38.454036 8=FIX.4.2|9=341|35=8|34=141|49=KOD|52=20180223-19:16:38.451|56=BON|57=BONT|1=BONACCOUNT|6=0.000|11=ORTT1_10_S1519413398405890000|14=0|17=FUT.DEMO.201804201802231_135|20=0|22=8|31=0.000|32=0|37=FUT.DEMO.201804201802231_135|38=10|39=0|40=2|41=ORTT1_10_S1519413398405890000|44=101.000|54=2|55=DEMO|59=1|60=20180223-19:16:38.421|150=0|151=10|167=FUT|200=201804|10=132|
2018/02/23 19:16:38.514576 8=FIX.4.2|9=191|35=D|34=229|49=BON|50=BONT|52=20180223-19:16:38.511|56=KOD|1=BONACCOUNT|11=ORTT1_10_B1519413398510367000|21=1|38=10|40=2|44=99.0|54=1|55=DEMO|59=1|60=20180223-19:16:38.510|167=FUT|200=201804|10=014|
2018/02/23 19:16:38.561336 8=FIX.4.2|9=340|35=8|34=142|49=KOD|52=20180223-19:16:38.559|56=BON|57=BONT|1=BONACCOUNT|6=0.000|11=ORTT1_10_B1519413398510367000|14=0|17=FUT.DEMO.201804201802231_136|20=0|22=8|31=0.000|32=0|37=FUT.DEMO.201804201802231_136|38=10|39=0|40=2|41=ORTT1_10_B1519413398510367000|44=99.000|54=1|55=DEMO|59=1|60=20180223-19:16:38.528|150=0|151=10|167=FUT|200=201804|10=076|
2018/02/23 19:16:38.614906 8=FIX.4.2|9=192|35=D|34=230|49=BON|50=BONT|52=20180223-19:16:38.611|56=KOD|1=BONACCOUNT|11=ORTT1_10_S1519413398611411000|21=1|38=10|40=2|44=101.0|54=2|55=DEMO|59=1|60=20180223-19:16:38.611|167=FUT|200=201804|10=052|
2018/02/23 19:16:38.657242 8=FIX.4.2|9=341|35=8|34=143|49=KOD|52=20180223-19:16:38.655|56=BON|57=BONT|1=BONACCOUNT|6=0.000|11=ORTT1_10_S1519413398611411000|14=0|17=FUT.DEMO.201804201802231_137|20=0|22=8|31=0.000|32=0|37=FUT.DEMO.201804201802231_137|38=10|39=0|40=2|41=ORTT1_10_S1519413398611411000|44=101.000|54=2|55=DEMO|59=1|60=20180223-19:16:38.625|150=0|151=10|167=FUT|200=201804|10=126|
2018/02/23 19:16:38.720417 8=FIX.4.2|9=191|35=D|34=231|49=BON|50=BONT|52=20180223-19:16:38.717|56=KOD|1=BONACCOUNT|11=ORTT1_10_B1519413398716406000|21=1|38=10|40=2|44=99.0|54=1|55=DEMO|59=1|60=20180223-19:16:38.717|167=FUT|200=201804|10=026|
2018/02/23 19:16:38.758531 8=FIX.4.2|9=340|35=8|34=144|49=KOD|52=20180223-19:16:38.756|56=BON|57=BONT|1=BONACCOUNT|6=0.000|11=ORTT1_10_B1519413398716406000|14=0|17=FUT.DEMO.201804201802231_138|20=0|22=8|31=0.000|32=0|37=FUT.DEMO.201804201802231_138|38=10|39=0|40=2|41=ORTT1_10_B1519413398716406000|44=99.000|54=1|55=DEMO|59=1|60=20180223-19:16:38.731|150=0|151=10|167=FUT|200=201804|10=081|
2018/02/23 19:16:38.824756 8=FIX.4.2|9=192|35=D|34=232|49=BON|50=BONT|52=20180223-19:16:38.821|56=KOD|1=BONACCOUNT|11=ORTT1_10_S1519413398820809000|21=1|38=10|40=2|44=101.0|54=2|55=DEMO|59=1|60=20180223-19:16:38.821|167=FUT|200=201804|10=073|
2018/02/23 19:16:38.866427 8=FIX.4.2|9=341|35=8|34=145|49=KOD|52=20180223-19:16:38.863|56=BON|57=BONT|1=BONACCOUNT|6=0.000|11=ORTT1_10_S1519413398820809000|14=0|17=FUT.DEMO.201804201802231_139|20=0|22=8|31=0.000|32=0|37=FUT.DEMO.201804201802231_139|38=10|39=0|40=2|41=ORTT1_10_S1519413398820809000|44=101.000|54=2|55=DEMO|59=1|60=20180223-19:16:38.836|150=0|151=10|167=FUT|200=201804|10=163|
2018/02/23 19:16:38.929984 8=FIX.4.2|9=191|35=D|34=233|49=BON|50=BONT|52=20180223-19:16:38.926|56=KOD|1=BONACCOUNT|11=ORTT1_10_B1519413398925463000|21=1|38=10|40=2|44=99.0|54=1|55=DEMO|59=1|60=20180223-19:16:38.926|167=FUT|200=201804|10=037|
2018/02/23 19:16:38.975263 8=FIX.4.2|9=340|35=8|34=146|49=KOD|52=20180223-19:16:38.972|56=BON|57=BONT|1=BONACCOUNT|6=0.000|11=ORTT1_10_B1519413398925463000|14=0|17=FUT.DEMO.201804201802231_140|20=0|22=8|31=0.000|32=0|37=FUT.DEMO.201804201802231_140|38=10|39=0|40=2|41=ORTT1_10_B1519413398925463000|44=99.000|54=1|55=DEMO|59=1|60=20180223-19:16:38.942|150=0|151=10|167=FUT|200=201804|10=083|
2018/02/23 19:16:39.035219 8=FIX.4.2|9=192|35=D|34=234|49=BON|50=BONT|52=20180223-19:16:39.031|56=KOD|1=BONACCOUNT|11=ORTT1_10_S1519413399030461000|21=1|38=10|40=2|44=101.0|54=2|55=DEMO|59=1|60=20180223-19:16:39.031|167=FUT|200=201804|10=051|
2018/02/23 19:16:39.077171 8=FIX.4.2|9=341|35=8|34=147|49=KOD|52=20180223-19:16:39.075|56=BON|57=BONT|1=BONACCOUNT|6=0.000|11=ORTT1_10_S1519413399030461000|14=0|17=FUT.DEMO.201804201802231_141|20=0|22=8|31=0.000|32=0|37=FUT.DEMO.201804201802231_141|38=10|39=0|40=2|41=ORTT1_10_S1519413399030461000|44=101.000|54=2|55=DEMO|59=1|60=20180223-19:16:39.047|150=0|151=10|167=FUT|200=201804|10=118|
2018/02/23 19:16:39.137781 8=FIX.4.2|9=191|35=D|34=235|49=BON|50=BONT|52=20180223-19:16:39.134|56=KOD|1=BONACCOUNT|11=ORTT1_10_B1519413399133595000|21=1|38=10|40=2|44=99.0|54=1|55=DEMO|59=1|60=20180223-19:16:39.134|167=FUT|200=201804|10=021|
2018/02/23 19:16:39.180351 8=FIX.4.2|9=340|35=8|34=148|49=KOD|52=20180223-19:16:39.178|56=BON|57=BONT|1=BONACCOUNT|6=0.000|11=ORTT1_10_B1519413399133595000|14=0|17=FUT.DEMO.201804201802231_142|20=0|22=8|31=0.000|32=0|37=FUT.DEMO.201804201802231_142|38=10|39=0|40=2|41=ORTT1_10_B1519413399133595000|44=99.000|54=1|55=DEMO|59=1|60=20180223-19:16:39.149|150=0|151=10|167=FUT|200=201804|10=084|
2018/02/23 19:16:39.242777 8=FIX.4.2|9=192|35=D|34=236|49=BON|50=BONT|52=20180223-19:16:39.239|56=KOD|1=BONACCOUNT|11=ORTT1_10_S1519413399238638000|21=1|38=10|40=2|44=101.0|54=2|55=DEMO|59=1|60=20180223-19:16:39.239|167=FUT|200=201804|10=089|
2018/02/23 19:16:39.285327 8=FIX.4.2|9=341|35=8|34=149|49=KOD|52=20180223-19:16:39.283|56=BON|57=BONT|1=BONACCOUNT|6=0.000|11=ORTT1_10_S1519413399238638000|14=0|17=FUT.DEMO.201804201802231_143|20=0|22=8|31=0.000|32=0|37=FUT.DEMO.201804201802231_143|38=10|39=0|40=2|41=ORTT1_10_S1519413399238638000|44=101.000|54=2|55=DEMO|59=1|60=20180223-19:16:39.254|150=0|151=10|167=FUT|200=201804|10=157|
2018/02/23 19:16:39.346507 8=FIX.4.2|9=191|35=D|34=237|49=BON|50=BONT|52=20180223-19:16:39.342|56=KOD|1=BONACCOUNT|11=ORTT1_10_B1519413399342217000|21=1|38=10|40=2|44=99.0|54=1|55=DEMO|59=1|60=20180223-19:16:39.342|167=FUT|200=201804|10=018|
2018/02/23 19:16:39.391296 8=FIX.4.2|9=340|35=8|34=150|49=KOD|52=20180223-19:16:39.388|56=BON|57=BONT|1=BONACCOUNT|6=0.000|11=ORTT1_10_B1519413399342217000|14=0|17=FUT.DEMO.201804201802231_144|20=0|22=8|31=0.000|32=0|37=FUT.DEMO.201804201802231_144|38=10|39=0|40=2|41=ORTT1_10_B1519413399342217000|44=99.000|54=1|55=DEMO|59=1|60=20180223-19:16:39.358|150=0|151=10|167=FUT|200=201804|10=072|
2018/02/23 19:16:39.451118 8=FIX.4.2|9=192|35=D|34=238|49=BON|50=BONT|52=20180223-19:16:39.447|56=KOD|1=BONACCOUNT|11=ORTT1_10_S1519413399446568000|21=1|38=10|40=2|44=101.0|54=2|55=DEMO|59=1|60=20180223-19:16:39.447|167=FUT|200=201804|10=096|
2018/02/23 19:16:39.499162 8=FIX.4.2|9=341|35=8|34=151|49=KOD|52=20180223-19:16:39.496|56=BON|57=BONT|1=BONACCOUNT|6=0.000|11=ORTT1_10_S1519413399446568000|14=0|17=FUT.DEMO.201804201802231_145|20=0|22=8|31=0.000|32=0|37=FUT.DEMO.201804201802231_145|38=10|39=0|40=2|41=ORTT1_10_S1519413399446568000|44=101.000|54=2|55=DEMO|59=1|60=20180223-19:16:39.462|150=0|151=10|167=FUT|200=201804|10=167|
2018/02/23 19:16:39.555514 8=FIX.4.2|9=191|35=D|34=239|49=BON|50=BONT|52=20180223-19:16:39.551|56=KOD|1=BONACCOUNT|11=ORTT1_10_B1519413399551106000|21=1|38=10|40=2|44=99.0|54=1|55=DEMO|59=1|60=20180223-19:16:39.551|167=FUT|200=201804|10=023|
2018/02/23 19:16:39.600072 8=FIX.4.2|9=340|35=8|34=152|49=KOD|52=20180223-19:16:39.597|56=BON|57=BONT|1=BONACCOUNT|6=0.000|11=ORTT1_10_B1519413399551106000|14=0|17=FUT.DEMO.201804201802231_146|20=0|22=8|31=0.000|32=0|37=FUT.DEMO.201804201802231_146|38=10|39=0|40=2|41=ORTT1_10_B1519413399551106000|44=99.000|54=1|55=DEMO|59=1|60=20180223-19:16:39.567|150=0|151=10|167=FUT|200=201804|10=080|
2018/02/23 19:16:39.660446 8=FIX.4.2|9=192|35=D|34=240|49=BON|50=BONT|52=20180223-19:16:39.656|56=KOD|1=BONACCOUNT|11=ORTT1_10_S1519413399655509000|21=1|38=10|40=2|44=101.0|54=2|55=DEMO|59=1|60=20180223-19:16:39.656|167=FUT|200=201804|10=090|
2018/02/23 19:16:39.704174 8=FIX.4.2|9=341|35=8|34=153|49=KOD|52=20180223-19:16:39.701|56=BON|57=BONT|1=BONACCOUNT|6=0.000|11=ORTT1_10_S1519413399655509000|14=0|17=FUT.DEMO.201804201802231_147|20=0|22=8|31=0.000|32=0|37=FUT.DEMO.201804201802231_147|38=10|39=0|40=2|41=ORTT1_10_S1519413399655509000|44=101.000|54=2|55=DEMO|59=1|60=20180223-19:16:39.673|150=0|151=10|167=FUT|200=201804|10=160|
2018/02/23 19:16:39.764366 8=FIX.4.2|9=191|35=D|34=241|49=BON|50=BONT|52=20180223-19:16:39.760|56=KOD|1=BONACCOUNT|11=ORTT1_10_B1519413399759856000|21=1|38=10|40=2|44=99.0|54=1|55=DEMO|59=1|60=20180223-19:16:39.760|167=FUT|200=201804|10=042|
2018/02/23 19:16:39.810039 8=FIX.4.2|9=340|35=8|34=154|49=KOD|52=20180223-19:16:39.807|56=BON|57=BONT|1=BONACCOUNT|6=0.000|11=ORTT1_10_B1519413399759856000|14=0|17=FUT.DEMO.201804201802231_148|20=0|22=8|31=0.000|32=0|37=FUT.DEMO.201804201802231_148|38=10|39=0|40=2|41=ORTT1_10_B1519413399759856000|44=99.000|54=1|55=DEMO|59=1|60=20180223-19:16:39.776|150=0|151=10|167=FUT|200=201804|10=126|
2018/02/23 19:16:39.865256 8=FIX.4.2|9=192|35=D|34=242|49=BON|50=BONT|52=20180223-19:16:39.862|56=KOD|1=BONACCOUNT|11=ORTT1_10_S1519413399861601000|21=1|38=10|40=2|44=101.0|54=2|55=DEMO|59=1|60=20180223-19:16:39.862|167=FUT|200=201804|10=082|
2018/02/23 19:16:39.915645 8=FIX.4.2|9=341|35=8|34=155|49=KOD|52=20180223-19:16:39.913|56=BON|57=BONT|1=BONACCOUNT|6=0.000|11=ORTT1_10_S1519413399861601000|14=0|17=FUT.DEMO.201804201802231_149|20=0|22=8|31=0.000|32=0|37=FUT.DEMO.201804201802231_149|38=10|39=0|40=2|41=ORTT1_10_S1519413399861601000|44=101.000|54=2|55=DEMO|59=1|60=20180223-19:16:39.880|150=0|151=10|167=FUT|200=201804|10=155|
2018/02/23 19:16:39.970193 8=FIX.4.2|9=191|35=D|34=243|49=BON|50=BONT|52=20180223-19:16:39.966|56=KOD|1=BONACCOUNT|11=ORTT1_10_B1519413399964870000|21=1|38=10|40=2|44=99.0|54=1|55=DEMO|59=1|60=20180223-19:16:39.966|167=FUT|200=201804|10=054|
2018/02/23 19:16:40.018957 8=FIX.4.2|9=340|35=8|34=156|49=KOD|52=20180223-19:16:40.016|56=BON|57=BONT|1=BONACCOUNT|6=0.000|11=ORTT1_10_B1519413399964870000|14=0|17=FUT.DEMO.201804201802231_150|20=0|22=8|31=0.000|32=0|37=FUT.DEMO.201804201802231_150|38=10|39=0|40=2|41=ORTT1_10_B1519413399964870000|44=99.000|54=1|55=DEMO|59=1|60=20180223-19:16:39.982|150=0|151=10|167=FUT|200=201804|10=085|
2018/02/23 19:16:40.073979 8=FIX.4.2|9=192|35=D|34=244|49=BON|50=BONT|52=20180223-19:16:40.070|56=KOD|1=BONACCOUNT|11=ORTT1_10_S1519413400070058000|21=1|38=10|40=2|44=101.0|54=2|55=DEMO|59=1|60=20180223-19:16:40.070|167=FUT|200=201804|10=031|
2018/02/23 19:16:40.120095 8=FIX.4.2|9=341|35=8|34=157|49=KOD|52=20180223-19:16:40.117|56=BON|57=BONT|1=BONACCOUNT|6=0.000|11=ORTT1_10_S1519413400070058000|14=0|17=FUT.DEMO.201804201802231_151|20=0|22=8|31=0.000|32=0|37=FUT.DEMO.201804201802231_151|38=10|39=0|40=2|41=ORTT1_10_S1519413400070058000|44=101.000|54=2|55=DEMO|59=1|60=20180223-19:16:40.086|150=0|151=10|167=FUT|200=201804|10=083|
2018/02/23 19:16:40.175999 8=FIX.4.2|9=191|35=D|34=245|49=BON|50=BONT|52=20180223-19:16:40.172|56=KOD|1=BONACCOUNT|11=ORTT1_10_B1519413400171297000|21=1|38=10|40=2|44=99.0|54=1|55=DEMO|59=1|60=20180223-19:16:40.172|167=FUT|200=201804|10=250|
2018/02/23 19:16:40.221839 8=FIX.4.2|9=340|35=8|34=158|49=KOD|52=20180223-19:16:40.219|56=BON|57=BONT|1=BONACCOUNT|6=0.000|11=ORTT1_10_B1519413400171297000|14=0|17=FUT.DEMO.201804201802231_152|20=0|22=8|31=0.000|32=0|37=FUT.DEMO.201804201802231_152|38=10|39=0|40=2|41=ORTT1_10_B1519413400171297000|44=99.000|54=1|55=DEMO|59=1|60=20180223-19:16:40.189|150=0|151=10|167=FUT|200=201804|10=039|
2018/02/23 19:16:40.280563 8=FIX.4.2|9=192|35=D|34=246|49=BON|50=BONT|52=20180223-19:16:40.277|56=KOD|1=BONACCOUNT|11=ORTT1_10_S1519413400276360000|21=1|38=10|40=2|44=101.0|54=2|55=DEMO|59=1|60=20180223-19:16:40.277|167=FUT|200=201804|10=055|
2018/02/23 19:16:40.323370 8=FIX.4.2|9=341|35=8|34=159|49=KOD|52=20180223-19:16:40.321|56=BON|57=BONT|1=BONACCOUNT|6=0.000|11=ORTT1_10_S1519413400276360000|14=0|17=FUT.DEMO.201804201802231_153|20=0|22=8|31=0.000|32=0|37=FUT.DEMO.201804201802231_153|38=10|39=0|40=2|41=ORTT1_10_S1519413400276360000|44=101.000|54=2|55=DEMO|59=1|60=20180223-19:16:40.292|150=0|151=10|167=FUT|200=201804|10=093|
2018/02/23 19:16:40.385563 8=FIX.4.2|9=191|35=D|34=247|49=BON|50=BONT|52=20180223-19:16:40.382|56=KOD|1=BONACCOUNT|11=ORTT1_10_B1519413400380668000|21=1|38=10|40=2|44=99.0|54=1|55=DEMO|59=1|60=20180223-19:16:40.382|167=FUT|200=201804|10=006|
2018/02/23 19:16:40.440163 8=FIX.4.2|9=340|35=8|34=160|49=KOD|52=20180223-19:16:40.437|56=BON|57=BONT|1=BONACCOUNT|6=0.000|11=ORTT1_10_B1519413400380668000|14=0|17=FUT.DEMO.201804201802231_154|20=0|22=8|31=0.000|32=0|37=FUT.DEMO.201804201802231_154|38=10|39=0|40=2|41=ORTT1_10_B1519413400380668000|44=99.000|54=1|55=DEMO|59=1|60=20180223-19:16:40.400|150=0|151=10|167=FUT|200=201804|10=032|
2018/02/23 19:16:40.488527 8=FIX.4.2|9=192|35=D|34=248|49=BON|50=BONT|52=20180223-19:16:40.485|56=KOD|1=BONACCOUNT|11=ORTT1_10_S1519413400484522000|21=1|38=10|40=2|44=101.0|54=2|55=DEMO|59=1|60=20180223-19:16:40.485|167=FUT|200=201804|10=060|
2018/02/23 19:16:40.534157 8=FIX.4.2|9=341|35=8|34=161|49=KOD|52=20180223-19:16:40.531|56=BON|57=BONT|1=BONACCOUNT|6=0.000|11=ORTT1_10_S1519413400484522000|14=0|17=FUT.DEMO.201804201802231_155|20=0|22=8|31=0.000|32=0|37=FUT.DEMO.201804201802231_155|38=10|39=0|40=2|41=ORTT1_10_S1519413400484522000|44=101.000|54=2|55=DEMO|59=1|60=20180223-19:16:40.501|150=0|151=10|167=FUT|200=201804|10=088|
2018/02/23 19:16:40.592119 8=FIX.4.2|9=191|35=D|34=249|49=BON|50=BONT|52=20180223-19:16:40.588|56=KOD|1=BONACCOUNT|11=ORTT1_10_B1519413400587831000|21=1|38=10|40=2|44=99.0|54=1|55=DEMO|59=1|60=20180223-19:16:40.588|167=FUT|200=201804|10=025|
