8=FIXT.1.1|9=101|35=A|34=1|49=BANZAI|52=20190627-14:05:52.459|56=EXEC|98=0|108=5|141=Y|553=testUser|554=mit123|1137=9|10=150|
8=FIXT.1.1|9=77|35=A|34=1|49=EXEC|52=20190627-14:05:52.538|56=BANZAI|98=0|108=5|141=Y|1137=9|10=122|
8=FIXT.1.1|9=123|35=D|34=18|49=BANZAI|52=20190627-14:07:14.433|56=EXEC|11=1|22=1|38=1|40=1|48=1|54=1|55=testSymbol|60=20190627-18:07:14.413|10=057|
8=FIXT.1.1|9=140|35=8|34=18|49=EXEC|52=20190627-14:07:14.495|56=BANZAI|11=1|14=0|17=17=1|22="|37=37=1|38=1990478064|39=0|48=:|54=1|55=testSymbol|150=2|151=1|10=020|
8=FIXT.1.1|9=123|35=D|34=19|49=BANZAI|52=20190627-14:07:14.504|56=EXEC|11=1|22=1|38=1|40=1|48=1|54=1|55=testSymbol|60=20190627-18:07:14.503|10=057|
8=FIXT.1.1|9=141|35=8|34=19|49=EXEC|52=20190627-14:07:14.505|56=BANZAI|11=1|14=0|17=17=3|22=T|37=37=3|38=-1118496942|39=0|48=j|54=1|55=testSymbol|150=2|151=1|10=158|
8=FIXT.1.1|9=123|35=D|34=22|49=BANZAI|52=20190627-14:07:26.859|56=EXEC|11=1|22=1|38=1|40=1|48=1|54=1|55=testSymbol|60=20190627-18:07:26.858|10=083|
8=FIXT.1.1|9=139|35=8|34=22|49=EXEC|52=20190627-14:07:26.860|56=BANZAI|11=1|14=0|17=17=5|22=L|37=37=5|38=268737682|39=0|48=8|54=1|55=testSymbol|150=2|151=1|10=023|
8=FIXT.1.1|9=123|35=D|34=23|49=BANZAI|52=20190627-14:07:26.867|56=EXEC|11=1|22=1|38=1|40=1|48=1|54=1|55=testSymbol|60=20190627-18:07:26.866|10=082|
8=FIXT.1.1|9=139|35=8|34=23|49=EXEC|52=20190627-14:07:26.868|56=BANZAI|11=1|14=0|17=17=7|22=0|37=37=7|38=827062359|39=0|48=_|54=1|55=testSymbol|150=2|151=1|10=040|
8=FIXT.1.1|9=124|35=D|34=24|49=BANZAI|52=20190627-14:07:26.878|56=EXEC|11=2|22=2|38=2|40=2|48=2|54=2|55=testSymbol2|60=20190627-18:07:26.878|10=145|
8=FIXT.1.1|9=141|35=8|34=24|49=EXEC|52=20190627-14:07:26.879|56=BANZAI|11=2|14=0|17=17=9|22=<|37=37=9|38=1575276399|39=0|48=2|54=2|55=testSymbol2|150=2|151=2|10=120|
8=FIXT.1.1|9=123|35=D|34=25|49=BANZAI|52=20190627-14:07:26.939|56=EXEC|11=1|22=1|38=1|40=1|48=1|54=1|55=testSymbol|60=20190627-18:07:26.938|10=084|
8=FIXT.1.1|9=141|35=8|34=25|49=EXEC|52=20190627-14:07:26.940|56=BANZAI|11=1|14=0|17=17=10|22=j|37=37=10|38=783454302|39=0|48=O|54=1|55=testSymbol|150=2|151=1|10=146|
8=FIXT.1.1|9=102|35=k|34=26|49=BANZAI|52=20190627-14:07:26.975|56=EXEC|374=N|391=1|393=1|394=1|418=A|419=A|420=1|399=1|10=082|
8=FIXT.1.1|9=105|35=E|34=27|49=BANZAI|52=20190627-14:07:26.998|56=EXEC|66=1|68=1|394=1|73=2|11=1|54=1|67=1|11=1|54=1|67=1|10=059|
8=FIXT.1.1|9=123|35=D|34=28|49=BANZAI|52=20190627-14:07:27.021|56=EXEC|11=1|22=1|38=1|40=1|48=1|54=1|55=testSymbol|60=20190627-18:07:27.021|10=054|
8=FIXT.1.1|9=143|35=8|34=26|49=EXEC|52=20190627-14:07:27.022|56=BANZAI|11=1|14=0|17=17=12|22=q|37=37=12|38=-1403121158|39=0|48=a|54=1|55=testSymbol|150=2|151=1|5001=XYZABC123|10=253|
8=FIXT.1.1|9=123|35=D|34=29|49=BANZAI|52=20190627-14:07:27.035|56=EXEC|11=1|22=1|38=1|40=1|48=1|54=1|55=testSymbol|60=20190627-18:07:27.034|10=064|
8=FIXT.1.1|9=142|35=8|34=27|49=EXEC|52=20190627-14:07:27.036|56=BANZAI|11=1|14=0|17=17=14|22=!|37=37=14|38=-292019831|39=0|48=#|54=1|55=testSymbol|150=2|151=1|10=081|
8=FIXT.1.1|9=123|35=D|34=30|49=BANZAI|52=20190627-14:07:32.091|56=EXEC|11=1|22=1|38=1|40=1|48=1|54=1|55=testSymbol|60=20190627-18:07:32.090|10=052|
8=FIXT.1.1|9=141|35=8|34=28|49=EXEC|52=20190627-14:07:32.092|56=BANZAI|11=1|14=0|17=17=16|22=i|37=37=16|38=681644206|39=0|48=G|54=1|55=testSymbol|150=2|151=1|10=148|
8=FIXT.1.1|9=123|35=D|34=31|49=BANZAI|52=20190627-14:07:32.250|56=EXEC|11=1|22=1|38=1|40=1|48=1|54=1|55=testSymbol|60=20190627-18:07:32.250|10=048|
8=FIXT.1.1|9=143|35=8|34=29|49=EXEC|52=20190627-14:07:32.251|56=BANZAI|11=1|14=0|17=17=18|22=U|37=37=18|38=-1587700809|39=0|48=[|54=1|55=testSymbol|150=2|151=1|10=253|
8=FIXT.1.1|9=123|35=D|34=32|49=BANZAI|52=20190627-14:07:32.282|56=EXEC|11=1|22=1|38=1|40=1|48=1|54=1|55=testSymbol|60=20190627-18:07:32.281|10=058|
8=FIXT.1.1|9=141|35=8|34=30|49=EXEC|52=20190627-14:07:32.283|56=BANZAI|11=1|14=0|17=17=20|22=?|37=37=20|38=567527906|39=0|48=}|54=1|55=testSymbol|150=2|151=1|10=155|
8=FIXT.1.1|9=123|35=D|34=33|49=BANZAI|52=20190627-14:07:32.298|56=EXEC|11=1|22=1|38=1|40=1|48=1|54=2|55=testSymbol|60=20190627-18:07:32.298|10=075|
8=FIXT.1.1|9=142|35=8|34=31|49=EXEC|52=20190627-14:07:32.299|56=BANZAI|11=1|14=0|17=17=22|22=?|37=37=22|38=-398911681|39=0|48=,|54=2|55=testSymbol|150=2|151=1|10=132|
8=FIXT.1.1|9=123|35=D|34=34|49=BANZAI|52=20190627-14:07:32.336|56=EXEC|11=1|22=1|38=1|40=1|48=1|54=1|55=testSymbol|60=20190627-18:07:32.335|10=060|
8=FIXT.1.1|9=142|35=8|34=32|49=EXEC|52=20190627-14:07:32.336|56=BANZAI|11=1|14=0|17=17=24|22=%|37=37=24|38=1208637001|39=0|48=Y|54=1|55=testSymbol|150=2|151=1|10=132|
8=FIXT.1.1|9=123|35=D|34=35|49=BANZAI|52=20190627-14:07:32.339|56=EXEC|11=2|22=1|38=1|40=1|48=1|54=1|55=testSymbol|60=20190627-18:07:32.338|10=068|
8=FIXT.1.1|9=142|35=8|34=33|49=EXEC|52=20190627-14:07:32.341|56=BANZAI|11=2|14=0|17=17=26|22=>|37=37=26|38=-146896090|39=0|48=@|54=1|55=testSymbol|150=2|151=1|10=146|
8=FIXT.1.1|9=123|35=D|34=36|49=BANZAI|52=20190627-14:07:32.342|56=EXEC|11=3|22=1|38=1|40=1|48=1|54=1|55=testSymbol|60=20190627-18:07:32.341|10=058|
8=FIXT.1.1|9=142|35=8|34=34|49=EXEC|52=20190627-14:07:32.343|56=BANZAI|11=3|14=0|17=17=28|22={|37=37=28|38=-111842134|39=0|48=U|54=1|55=testSymbol|150=2|151=1|10=218|
8=FIXT.1.1|9=123|35=D|34=37|49=BANZAI|52=20190627-14:07:32.345|56=EXEC|11=4|22=1|38=1|40=1|48=1|54=1|55=testSymbol|60=20190627-18:07:32.343|10=065|
8=FIXT.1.1|9=141|35=8|34=35|49=EXEC|52=20190627-14:07:32.348|56=BANZAI|11=4|14=0|17=17=30|22=n|37=37=30|38=876325929|39=0|48=}|54=1|55=testSymbol|150=2|151=1|10=218|
8=FIXT.1.1|9=123|35=D|34=38|49=BANZAI|52=20190627-14:07:32.433|56=EXEC|11=2|22=1|38=1|40=1|48=1|54=1|55=testSymbol|60=20190627-18:07:32.431|10=060|
8=FIXT.1.1|9=142|35=8|34=36|49=EXEC|52=20190627-14:07:32.434|56=BANZAI|11=2|14=0|17=17=32|22=(|37=37=32|38=-491487232|39=0|48=v|54=1|55=testSymbol|150=2|151=1|10=175|
8=FIXT.1.1|9=123|35=D|34=39|49=BANZAI|52=20190627-14:07:32.444|56=EXEC|11=3|22=1|38=1|40=1|48=1|54=1|55=testSymbol|60=20190627-18:07:32.443|10=067|
8=FIXT.1.1|9=143|35=8|34=37|49=EXEC|52=20190627-14:07:32.445|56=BANZAI|11=3|14=0|17=17=34|22=/|37=37=34|38=-1841483132|39=0|48==|54=1|55=testSymbol|150=2|151=1|10=177|
8=FIXT.1.1|9=123|35=D|34=40|49=BANZAI|52=20190627-14:07:32.446|56=EXEC|11=4|22=1|38=1|40=1|48=1|54=1|55=testSymbol|60=20190627-18:07:32.445|10=064|
8=FIXT.1.1|9=143|35=8|34=38|49=EXEC|52=20190627-14:07:32.449|56=BANZAI|11=4|14=0|17=17=36|22=u|37=37=36|38=-1470031951|39=0|48=}|54=1|55=testSymbol|150=2|151=1|10=061|
8=FIXT.1.1|9=123|35=D|34=41|49=BANZAI|52=20190627-14:07:32.516|56=EXEC|11=1|22=1|38=1|40=1|48=1|54=1|55=testSymbol|60=20190627-18:07:32.515|10=058|
8=FIXT.1.1|9=143|35=8|34=39|49=EXEC|52=20190627-14:07:32.516|56=BANZAI|11=1|14=0|17=17=38|22=T|37=37=38|38=-1017923908|39=0|48=||54=1|55=testSymbol|150=2|151=1|10=033|
8=FIXT.1.1|9=123|35=D|34=42|49=BANZAI|52=20190627-14:07:32.522|56=EXEC|11=1|22=1|38=1|40=1|48=1|54=1|55=testSymbol|60=20190627-18:07:32.521|10=053|
8=FIXT.1.1|9=141|35=8|34=40|49=EXEC|52=20190627-14:07:32.522|56=BANZAI|11=1|14=0|17=17=40|22=2|37=37=40|38=679142142|39=0|48=}|54=1|55=testSymbol|150=2|151=1|10=132|
8=FIXT.1.1|9=54|35=5|34=78|49=BANZAI|52=20190627-14:10:31.453|56=EXEC|10=065|
8=FIXT.1.1|9=54|35=5|34=76|49=EXEC|52=20190627-14:10:31.459|56=BANZAI|10=069|
8=FIXT.1.1|9=101|35=A|34=1|49=BANZAI|52=20190627-14:11:27.784|56=EXEC|98=0|108=5|141=Y|553=testUser|554=mit123|1137=9|10=150|
8=FIXT.1.1|9=77|35=A|34=1|49=EXEC|52=20190627-14:11:27.804|56=BANZAI|98=0|108=5|141=Y|1137=9|10=117|
8=FIXT.1.1|9=122|35=D|34=3|49=BANZAI|52=20190627-14:11:37.617|56=EXEC|11=1|22=1|38=1|40=1|48=1|54=1|55=testSymbol|60=20190627-18:11:37.616|10=011|
8=FIXT.1.1|9=138|35=8|34=3|49=EXEC|52=20190627-14:11:37.618|56=BANZAI|11=1|14=0|17=17=1|22=3|37=37=1|38=113348510|39=0|48=,|54=1|55=testSymbol|150=2|151=1|10=159|
8=FIXT.1.1|9=122|35=D|34=4|49=BANZAI|52=20190627-14:11:37.623|56=EXEC|11=1|22=1|38=1|40=1|48=1|54=1|55=testSymbol|60=20190627-18:11:37.623|10=007|
8=FIXT.1.1|9=140|35=8|34=4|49=EXEC|52=20190627-14:11:37.624|56=BANZAI|11=1|14=0|17=17=3|22=f|37=37=3|38=-1037836568|39=0|48=L|54=1|55=testSymbol|150=2|151=1|10=095|
8=FIXT.1.1|9=122|35=D|34=7|49=BANZAI|52=20190627-14:11:49.755|56=EXEC|11=1|22=1|38=1|40=1|48=1|54=1|55=testSymbol|60=20190627-18:11:49.755|10=028|
8=FIXT.1.1|9=139|35=8|34=7|49=EXEC|52=20190627-14:11:49.756|56=BANZAI|11=1|14=0|17=17=5|22=X|37=37=5|38=-288013811|39=0|48=g|54=1|55=testSymbol|150=2|151=1|10=069|
8=FIXT.1.1|9=122|35=D|34=8|49=BANZAI|52=20190627-14:11:49.759|56=EXEC|11=1|22=1|38=1|40=1|48=1|54=1|55=testSymbol|60=20190627-18:11:49.758|10=036|
8=FIXT.1.1|9=139|35=8|34=8|49=EXEC|52=20190627-14:11:49.760|56=BANZAI|11=1|14=0|17=17=7|22=||37=37=7|38=1362506967|39=0|48=K|54=1|55=testSymbol|150=2|151=1|10=093|
8=FIXT.1.1|9=123|35=D|34=9|49=BANZAI|52=20190627-14:11:49.765|56=EXEC|11=2|22=2|38=2|40=2|48=2|54=2|55=testSymbol2|60=20190627-18:11:49.765|10=089|
8=FIXT.1.1|9=139|35=8|34=9|49=EXEC|52=20190627-14:11:49.766|56=BANZAI|11=2|14=0|17=17=9|22=t|37=37=9|38=574439241|39=0|48=c|54=2|55=testSymbol2|150=2|151=2|10=119|
8=FIXT.1.1|9=123|35=D|34=10|49=BANZAI|52=20190627-14:11:49.804|56=EXEC|11=1|22=1|38=1|40=1|48=1|54=1|55=testSymbol|60=20190627-18:11:49.804|10=061|
8=FIXT.1.1|9=142|35=8|34=10|49=EXEC|52=20190627-14:11:49.805|56=BANZAI|11=1|14=0|17=17=10|22=P|37=37=10|38=1121958052|39=0|48=Q|54=1|55=testSymbol|150=2|151=1|10=163|
8=FIXT.1.1|9=102|35=k|34=11|49=BANZAI|52=20190627-14:11:49.830|56=EXEC|374=N|391=1|393=1|394=1|418=A|419=A|420=1|399=1|10=066|
8=FIXT.1.1|9=105|35=E|34=12|49=BANZAI|52=20190627-14:11:49.845|56=EXEC|66=1|68=1|394=1|73=2|11=1|54=1|67=1|11=1|54=1|67=1|10=044|
8=FIXT.1.1|9=123|35=D|34=13|49=BANZAI|52=20190627-14:11:49.861|56=EXEC|11=1|22=1|38=1|40=1|48=1|54=1|55=testSymbol|60=20190627-18:11:49.860|10=069|
8=FIXT.1.1|9=142|35=8|34=11|49=EXEC|52=20190627-14:11:49.861|56=BANZAI|11=1|14=0|17=17=12|22=l|37=37=12|38=-920154784|39=0|48=#|54=1|55=testSymbol|150=2|151=1|10=155|
8=FIXT.1.1|9=123|35=D|34=14|49=BANZAI|52=20190627-14:11:49.863|56=EXEC|11=1|22=1|38=1|40=1|48=1|54=1|55=testSymbol|60=20190627-18:11:49.862|10=074|
8=FIXT.1.1|9=142|35=8|34=12|49=EXEC|52=20190627-14:11:49.864|56=BANZAI|11=1|14=0|17=17=14|22=U|37=37=14|38=-839127952|39=0|48=,|54=1|55=testSymbol|150=2|151=1|10=155|
8=FIXT.1.1|9=123|35=D|34=15|49=BANZAI|52=20190627-14:11:54.886|56=EXEC|11=1|22=1|38=1|40=1|48=1|54=1|55=testSymbol|60=20190627-18:11:54.886|10=078|
8=FIXT.1.1|9=142|35=8|34=13|49=EXEC|52=20190627-14:11:54.887|56=BANZAI|11=1|14=0|17=17=16|22=h|37=37=16|38=1170015288|39=0|48=A|54=1|55=testSymbol|150=2|151=1|10=191|
8=FIXT.1.1|9=123|35=D|34=16|49=BANZAI|52=20190627-14:11:55.007|56=EXEC|11=1|22=1|38=1|40=1|48=1|54=1|55=testSymbol|60=20190627-18:11:55.007|10=051|
8=FIXT.1.1|9=141|35=8|34=14|49=EXEC|52=20190627-14:11:55.008|56=BANZAI|11=1|14=0|17=17=18|22=U|37=37=18|38=315084068|39=0|48=v|54=1|55=testSymbol|150=2|151=1|10=169|
8=FIXT.1.1|9=123|35=D|34=17|49=BANZAI|52=20190627-14:11:55.033|56=EXEC|11=1|22=1|38=1|40=1|48=1|54=1|55=testSymbol|60=20190627-18:11:55.032|10=049|
8=FIXT.1.1|9=142|35=8|34=15|49=EXEC|52=20190627-14:11:55.034|56=BANZAI|11=1|14=0|17=17=20|22=&|37=37=20|38=-428387678|39=0|48=m|54=1|55=testSymbol|150=2|151=1|10=163|
8=FIXT.1.1|9=123|35=D|34=18|49=BANZAI|52=20190627-14:11:55.035|56=EXEC|11=1|22=1|38=1|40=1|48=1|54=2|55=testSymbol|60=20190627-18:11:55.034|10=055|
8=FIXT.1.1|9=142|35=8|34=16|49=EXEC|52=20190627-14:11:55.037|56=BANZAI|11=1|14=0|17=17=22|22=B|37=37=22|38=2137732502|39=0|48=4|54=2|55=testSymbol|150=2|151=1|10=125|
8=FIXT.1.1|9=123|35=D|34=19|49=BANZAI|52=20190627-14:11:55.060|56=EXEC|11=1|22=1|38=1|40=1|48=1|54=1|55=testSymbol|60=20190627-18:11:55.059|10=060|
8=FIXT.1.1|9=142|35=8|34=17|49=EXEC|52=20190627-14:11:55.061|56=BANZAI|11=1|14=0|17=17=24|22='|37=37=24|38=1583609533|39=0|48=,|54=1|55=testSymbol|150=2|151=1|10=102|
8=FIXT.1.1|9=123|35=D|34=20|49=BANZAI|52=20190627-14:11:55.062|56=EXEC|11=2|22=1|38=1|40=1|48=1|54=1|55=testSymbol|60=20190627-18:11:55.061|10=048|
8=FIXT.1.1|9=141|35=8|34=18|49=EXEC|52=20190627-14:11:55.063|56=BANZAI|11=2|14=0|17=17=26|22=v|37=37=26|38=-74424185|39=0|48=0|54=1|55=testSymbol|150=2|151=1|10=133|
8=FIXT.1.1|9=123|35=D|34=21|49=BANZAI|52=20190627-14:11:55.063|56=EXEC|11=3|22=1|38=1|40=1|48=1|54=1|55=testSymbol|60=20190627-18:11:55.063|10=053|
8=FIXT.1.1|9=123|35=D|34=22|49=BANZAI|52=20190627-14:11:55.064|56=EXEC|11=4|22=1|38=1|40=1|48=1|54=1|55=testSymbol|60=20190627-18:11:55.064|10=057|
8=FIXT.1.1|9=143|35=8|34=19|49=EXEC|52=20190627-14:11:55.067|56=BANZAI|11=3|14=0|17=17=28|22=P|37=37=28|38=-1980973086|39=0|48=D|54=1|55=testSymbol|150=2|151=1|10=239|
8=FIXT.1.1|9=142|35=8|34=20|49=EXEC|52=20190627-14:11:55.069|56=BANZAI|11=4|14=0|17=17=30|22=C|37=37=30|38=1427914355|39=0|48=g|54=1|55=testSymbol|150=2|151=1|10=186|
8=FIXT.1.1|9=123|35=D|34=23|49=BANZAI|52=20190627-14:11:55.101|56=EXEC|11=2|22=1|38=1|40=1|48=1|54=1|55=testSymbol|60=20190627-18:11:55.101|10=040|
8=FIXT.1.1|9=142|35=8|34=21|49=EXEC|52=20190627-14:11:55.102|56=BANZAI|11=2|14=0|17=17=32|22=^|37=37=32|38=-706905310|39=0|48=L|54=1|55=testSymbol|150=2|151=1|10=164|
8=FIXT.1.1|9=123|35=D|34=24|49=BANZAI|52=20190627-14:11:55.103|56=EXEC|11=3|22=1|38=1|40=1|48=1|54=1|55=testSymbol|60=20190627-18:11:55.103|10=046|
8=FIXT.1.1|9=123|35=D|34=25|49=BANZAI|52=20190627-14:11:55.104|56=EXEC|11=4|22=1|38=1|40=1|48=1|54=1|55=testSymbol|60=20190627-18:11:55.104|10=050|
8=FIXT.1.1|9=142|35=8|34=22|49=EXEC|52=20190627-14:11:55.105|56=BANZAI|11=3|14=0|17=17=34|22=?|37=37=34|38=2005592068|39=0|48=$|54=1|55=testSymbol|150=2|151=1|10=111|
8=FIXT.1.1|9=143|35=8|34=23|49=EXEC|52=20190627-14:11:55.109|56=BANZAI|11=4|14=0|17=17=36|22=8|37=37=36|38=-1980092842|39=0|48=W|54=1|55=testSymbol|150=2|151=1|10=217|
8=FIXT.1.1|9=123|35=D|34=26|49=BANZAI|52=20190627-14:11:55.138|56=EXEC|11=1|22=1|38=1|40=1|48=1|54=1|55=testSymbol|60=20190627-18:11:55.138|10=062|
8=FIXT.1.1|9=143|35=8|34=24|49=EXEC|52=20190627-14:11:55.139|56=BANZAI|11=1|14=0|17=17=38|22=1|37=37=38|38=-1160984565|39=0|48=X|54=1|55=testSymbol|150=2|151=1|10=218|
8=FIXT.1.1|9=123|35=D|34=27|49=BANZAI|52=20190627-14:11:55.144|56=EXEC|11=1|22=1|38=1|40=1|48=1|54=1|55=testSymbol|60=20190627-18:11:55.143|10=056|
8=FIXT.1.1|9=142|35=8|34=25|49=EXEC|52=20190627-14:11:55.144|56=BANZAI|11=1|14=0|17=17=40|22=q|37=37=40|38=1724175005|39=0|48=`|54=1|55=testSymbol|150=2|151=1|10=214|
