<20200713-17:51:23, FIX.4.4:FIXTESTA->MONTRANTS, event> (MINA session created: local=/10.204.211.111:58476, class org.apache.mina.transport.socket.nio.NioSocketSession, remote=/10.75.78.40:11202)
<20200713-17:51:24, FIX.4.4:FIXTESTA->MONTRANTS, outgoing> (8=FIX.4.4|9=72|35=A|34=1|49=FIXTESTA|52=20200713-17:51:24.109|56=MONTRANTS|98=0|108=30|10=042|)
<20200713-17:51:24, FIX.4.4:FIXTESTA->MONTRANTS, event> (Initiated logon request)
<20200713-17:51:24, FIX.4.4:FIXTESTA->MONTRANTS, incoming> (8=FIX.4.4|9=72|35=A|34=1|49=MONTRANTS|52=20200713-17:51:41.693|56=FIXTESTA|98=0|108=30|10=049|)
<20200713-17:51:24, FIX.4.4:FIXTESTA->MONTRANTS, event> (Received logon)

<20200713-17:51:28, FIX.4.4:FIXTESTA->MONTRANTS, outgoing> (8=FIX.4.4|9=181|35=D|34=2|49=FIXTESTA|52=20200713-17:51:28.127|56=MONTRANTS|1=GE05FIXTXXXGOP00000005|11=FIXTESTA05|38=100|40=2|44=95.00|54=1|55=ADB03M|60=20200713-13:51:28.124|528=P|1300=GelODebtM|10=155|)

<20200713-17:51:28, FIX.4.4:FIXTESTA->MONTRANTS, outgoing> (8=FIX.4.4|9=181|35=D|34=3|49=FIXTESTA|52=20200713-17:51:28.131|56=MONTRANTS|1=GE05FIXTXXXGOP00000005|11=FIXTESTA06|38=100|40=2|44=95.00|54=2|55=ADB03M|60=20200713-13:51:28.130|528=P|1300=GelODebtM|10001=TESTUDF|10=150|)
<20200713-17:51:28, FIX.4.4:FIXTESTA->MONTRANTS, outgoing> (8=FIX.4.4|9=181|35=D|34=3|49=FIXTESTA|52=20200713-17:51:28.131|56=MONTRANTS|1=GE05FIXTXXXGOP00000005|11=FIXTESTA06|38=100|40=2|44=95.00|54=2|55=ADB03M|60=20200713-13:51:28.130|528=P|1300=GelODebtM|453=2|448=PartyID1|447=D|452=1000|10003=UDFCOMPONENT1|448=PartyID2|452=1001|10001=TESTUDF|10=150|)
<20200713-17:51:28, FIX.4.4:FIXTESTA->MONTRANTS, outgoing> (8=FIX.4.4|9=181|35=D|34=3|49=FIXTESTA|52=20200713-17:51:28.131|56=MONTRANTS|1=GE05FIXTXXXGOP00000005|11=FIXTESTA06|38=100|40=2|44=95.00|54=2|55=ADB03M|60=20200713-13:51:28.130|528=P|1300=GelODebtM|453=2|448=PartyID1|447=D|452=1000|10003=UDFCOMPONENT1|448=PartyID2|452=1001|10003=UDFCOMPONENT-2|10001=TESTUDF|10=150|)
<20200713-17:51:28, FIX.4.4:FIXTESTA->MONTRANTS, outgoing> (8=FIX.4.4|9=181|35=D|34=3|49=FIXTESTA|52=20200713-17:51:28.131|56=MONTRANTS|1=GE05FIXTXXXGOP00000005|11=FIXTESTA06|38=100|40=2|44=95.00|54=2|55=ADB03M|60=20200713-13:51:28.130|528=P|1300=GelODebtM|1500=MDStreamIDTEST1234|10001=TESTUDF|10=150|)
<20200713-17:51:28, FIX.4.4:FIXTESTA->MONTRANTS, incoming> (8=FIX.4.4|9=163|35=8|34=2|49=MONTRANTS|52=20200713-17:51:45.852|56=FIXTESTA|6=0|11=FIXTESTA05|14=0|17=17|31=95.00000000|32=100|37=20200525O4000007|39=A|54=1|55=ADB03M|150=A|10002=TESTUDF2|151=0|10=004|)
<20200713-17:51:28, FIX.4.4:FIXTESTA->MONTRANTS, incoming> (8=FIX.4.4|9=163|35=8|34=3|49=MONTRANTS|52=20200713-17:51:45.873|56=FIXTESTA|6=0|11=FIXTESTA06|14=0|17=18|31=95.00000000|32=100|37=20200525O4000008|39=A|54=2|55=ADB03M|150=A|151=0|10=012|)
<20200713-17:51:28, FIX.4.4:FIXTESTA->MONTRANTS, incoming> (8=FIX.4.4|9=175|35=8|34=4|49=MONTRANTS|52=20200713-17:51:45.941|56=FIXTESTA|6=95.00000000|11=FIXTESTA05|14=0|17=19|31=95.00000000|32=100|37=20200525O4000007|39=0|54=1|55=ADB03M|150=0|151=100|10=053|)
<20200713-17:51:28, FIX.4.4:FIXTESTA->MONTRANTS, incoming> (8=FIX.4.4|9=175|35=8|34=5|49=MONTRANTS|52=20200713-17:51:46.017|56=FIXTESTA|6=95.00000000|11=FIXTESTA06|14=0|17=20|31=95.00000000|32=100|37=20200525O4000008|39=0|54=2|55=ADB03M|150=0|151=100|10=044|)
<20200713-17:51:30, FIX.4.4:FIXTESTA->MONTRANTS, incoming> (8=FIX.4.4|9=165|35=8|34=6|49=MONTRANTS|52=20200713-17:51:46.027|56=FIXTESTA|6=0|11=FIXTESTA05|14=100|17=21|31=95.00000000|32=100|37=20200525O4000007|39=2|54=1|55=ADB03M|150=F|151=0|10=087|)
<20200713-17:51:30, FIX.4.4:FIXTESTA->MONTRANTS, incoming> (8=FIX.4.4|9=165|35=8|34=7|49=MONTRANTS|52=20200713-17:51:46.045|56=FIXTESTA|6=0|11=FIXTESTA06|14=100|17=23|31=95.00000000|32=100|37=20200525O4000008|39=2|54=2|55=ADB03M|150=F|151=0|10=093|)
<20200713-17:51:39, FIX.4.4:FIXTESTA->MONTRANTS, event> (Initiated logout request)
<20200713-17:51:39, FIX.4.4:FIXTESTA->MONTRANTS, outgoing> (8=FIX.4.4|9=78|35=5|34=4|49=FIXTESTA|52=20200713-17:51:39.088|56=MONTRANTS|58=user requested|10=118|)
<20200713-17:51:39, FIX.4.4:FIXTESTA->MONTRANTS, incoming> (8=FIX.4.4|9=60|35=5|34=8|49=MONTRANTS|52=20200713-17:51:56.659|56=FIXTESTA|10=024|)