8=FIXT.1.1|9=123|35=D|34=18|49=BANZAI|52=20190627-14:07:14.433|56=EXEC|11=1|22=1|38=1|40=1|48=1|54=1|55=testSymbol|60=20190627-18:07:14.413|453=3|448=DEU|447=B|452=1|10001=outer|802=1|523=A1|803=10|10002=inner|448=104317|447=H|452=83|448=GSI|447=B|452=4|2376=23|802=1|523=C3|803=10|10113=LOG113 10=057|
